:100000000C9462000C949C070C9475070C948A0065
:100010000C948A000C948A000C948A000C948A0038
:100020000C948A000C948A000C948A000C948A0028
:100030000C948A000C948A000C948A000C948A0018
:100040000C942B070C948A000C94E9070C94C307BA
:100050000C948A000C948A000C948A000C948A00F8
:100060000C948A000C948A000000000024002700F1
:100070002A0000000000250028002B0000000000DE
:1000800023002600290004040404040404040202DA
:100090000202020203030303030301020408102007
:1000A0004080010204081020010204081020000012
:1000B0000008000201000003040700000000000027
:1000C00000001B0811241FBECFEFD8E0DEBFCDBF5C
:1000D00011E0A0E0B1E0EAEBFCE102C005900D9276
:1000E000A23DB107D9F723E0A2EDB1E001C01D9216
:1000F000A931B207E1F710E0C2E6D0E004C02197D1
:10010000FE010E94500EC136D107C9F70E94AD0909
:100110000C945B0E0C940000FC01538D448D252F34
:1001200030E0842F90E0821B930B541710F0CF9691
:10013000089501970895FC01918D828D981761F0C3
:10014000828DDF01A80FB11D5D968C91928D9F5F0E
:100150009F73928F90E008958FEF9FEF0895FC01B9
:10016000918D828D981731F0828DE80FF11D858D6C
:1001700090E008958FEF9FEF0895FC01918D228DFF
:10018000892F90E0805C9F4F821B91098F73992784
:100190000895FC01848DDF01A80FB11DA35ABF4F44
:1001A0002C91848D90E001968F739927848FA68976
:1001B000B7892C93A089B1898C91837080648C93CA
:1001C000938D848D981306C00288F389E02D808179
:1001D0008F7D80830895EF92FF920F931F93CF93AB
:1001E000DF93EC0181E0888F9B8D8C8D981305C087
:1001F000E889F989808185FD26C0F62E0B8D10E0F7
:100200000F5F1F4F0F731127E02E8C8DE8120CC06B
:100210000FB607FCFACFE889F989808185FFF5CF11
:10022000CE010E94C900F1CF8B8DFE01E80FF11DB8
:10023000E35AFF4FF0829FB7F8940B8FEA89FB894E
:10024000808180620AC09FB7F894EE89FF8960833D
:10025000E889F98980818370806480839FBF81E011
:1002600090E0DF91CF911F910F91FF90EF90089553
:10027000CF93DF93EC01888D8823C9F0EA89FB894D
:10028000808185FD05C0A889B9898C9186FD0FC044
:100290000FB607FCF5CF808185FFF2CFA889B98919
:1002A0008C9185FFEDCFCE010E94C900E7CFDF9191
:1002B000CF9108958BEE91E00E94BD0021E0892B43
:1002C00009F420E0822F089580E090E0892B29F046
:1002D0000E945A0181110C9400000895833081F02E
:1002E00028F4813099F08230A1F008958730A9F088
:1002F0008830B9F08430D1F4809180008F7D03C0C4
:10030000809180008F7780938000089584B58F77E7
:1003100002C084B58F7D84BD08958091B0008F7731
:1003200003C08091B0008F7D8093B0000895CF937B
:10033000DF93282F30E0F901E255FF4F8491F90156
:10034000E656FF4FD491F901EA57FF4FC491CC23F1
:1003500091F081110E946E01EC2FF0E0EE0FFF1F73
:10036000E458FF4FA591B491EC91ED2381E090E02A
:1003700021F480E002C080E090E0DF91CF91089509
:100380001F93CF93DF93282F30E0F901E255FF4F01
:100390008491F901E656FF4FD491F901EA57FF4FD6
:1003A000C491CC23C1F0162F81110E946E01EC2F55
:1003B000F0E0EE0FFF1FEE58FF4FA591B4919FB7ED
:1003C000F894111104C08C91D095D82302C0EC91FF
:1003D000DE2BDC939FBFDF91CF911F910895CF93C8
:1003E000DF9390E0FC01E656FF4F2491FC01EA57B1
:1003F000FF4F8491882361F190E0880F991FFC01E1
:10040000E859FF4FC591D491FC01EE58FF4FA591DB
:10041000B491611109C09FB7F89488812095822317
:100420008883EC912E230BC0623061F49FB7F8945F
:100430008881322F309583238883EC912E2B2C9347
:100440009FBF06C08FB7F894E8812E2B28838FBFFB
:10045000DF91CF9108953FB7F8948091E701909193
:10046000E801A091E901B091EA0126B5A89B05C079
:100470002F3F19F00196A11DB11D3FBFBA2FA92F23
:10048000982F8827820F911DA11DB11DBC01CD01A0
:1004900042E0660F771F881F991F4A95D1F708958C
:1004A000CF92DF92EF92FF92CF93DF93C62FF42E7D
:1004B0008130E9F0A8F0823031F18330C1F561E09C
:1004C00080918F020E94C00161E0809190020E94A1
:1004D000C00161E0809191020E94C00160E023C0F0
:1004E00060E080918F020E94C00161E006C061E07F
:1004F00080918F020E94C00160E0809190020E9472
:10050000C00161E00BC061E080918F020E94C001D8
:1005100061E0809190020E94C00160E080919102B0
:100520000E94C00161E0809192020E94C00127E018
:10053000C29FE0011124C457DD4F6F858091930263
:100540000E94C0016889809194020E94C00169895B
:10055000809195020E94C0016A89809196020E9452
:10056000C0016B89809197020E94C0016C898091C3
:1005700098020E94C0016D89809199020E94C00179
:100580006F2D80919A020E94C0010E942B026B0184
:100590007C010E942B02DC01CB018C199D09AE0964
:1005A000BF09883E9340A105B10598F360E08091B2
:1005B00093020E94C00160E0809194020E94C001F9
:1005C00060E0809195020E94C00160E080919602F7
:1005D0000E94C00160E0809197020E94C00160E02B
:1005E000809198020E94C00160E0809199020E946F
:1005F000C00160E080919A02DF91CF91FF90EF906F
:10060000DF90CF900C94C0018F929F92AF92BF92D7
:10061000CF92DF92EF92FF926B017C0120E030E0FD
:100620004AE754E40E94DE0D87FD7AC020E030E006
:100630004AE754E4C701B6010E94840C4B015C01F7
:100640000E94FD0C40E080E00E945002C501B40110
:100650000E94F60C28EE33E0269FA001279F500D44
:10066000369F500D1124BA01550F880B990B0E942B
:100670002E0D9B01AC01C701B6010E94120C6B014B
:100680007C0120E030E048EC52E40E94840C4B01F5
:100690005C010E94FD0C40E081E00E945002C50117
:1006A000B4010E94F60C24E6269FA001279F500D5E
:1006B0001124BA01550F880B990B0E942E0D9B0136
:1006C000AC01C701B6010E94120C6B017C0120E055
:1006D00030E040E251E40E94840C4B015C010E9436
:1006E000FD0C40E082E00E945002C501B4010E946E
:1006F000F60C2AE0269FA001279F500D1124BA0175
:10070000550F880B990B0E942E0D9B01AC01C70160
:10071000B6010E94120C0E94F60C40918C02FDC0A2
:1007200020E030E048EC52E4C701B6010E94DE0D43
:1007300087FD54C020E030E048EC52E4C701B60128
:100740000E94840C4B015C010E94FD0C40E080E0A3
:100750000E945002C501B4010E94F60C24E6269FB7
:10076000A001279F500D1124BA01550F880B990B3A
:100770000E942E0D9B01AC01C701B6010E94120C14
:100780006B017C0120E030E040E251E40E94840CE7
:100790004B015C010E94FD0C40E081E00E94500290
:1007A000C501B4010E94F60C2AE0269FA001279FF4
:1007B000500D1124BA01550F880B990B0E942E0D74
:1007C0009B01AC01C701B6010E94120C4B015C01F8
:1007D0000E94F60C6B017C0141E06AC020E030E031
:1007E00040E251E4C701B6010E94DE0D87FD3BC027
:1007F00020E030E040E251E4C701B6010E94840CE1
:100800004B015C010E94FD0C40E080E00E94500220
:10081000C501B4010E94F60C2AE0269FA001279F83
:10082000500D1124BA01550F880B990B0E942E0D03
:100830009B01AC01C701B6010E94120C4B015C0187
:100840000E94F60C6B017C0141E081E00E945002A5
:10085000B601DD0C880B990B0E942E0D9B01AC019B
:10086000C501B40116C010928D02C701B6010E94E5
:10087000F60C4B015C0141E081E00E945002B401A2
:10088000990C880B990B0E942E0D9B01AC01C7019E
:10089000B6010E94120C20E030E040E251E40E94D8
:1008A000E30D4B015C010E94F60C6B017C0140E002
:1008B0006C2D82E00E945002B601DD0C880B990B72
:1008C0000E942E0D9B01AC01C501B4010E94120CC7
:1008D00020E030E040E251E40E94E30D4B015C0176
:1008E0000E94F60C6B017C01072E000C880B990B03
:1008F0000E942E0D9B01AC01C501B4010E94120C97
:1009000020E030E040E05FE30E94DE0D18161CF4AA
:1009100061E06C0D01C06C2D40E083E0FF90EF9032
:10092000DF90CF90BF90AF909F908F900C9450022B
:100930000895CF92DF92EF92FF920F931F93CF9380
:10094000DF936C017A018B01C0E0D0E0CE15DF05AA
:1009500081F0D8016D918D01D601ED91FC9101904E
:10096000F081E02DC6010995892B11F02196EECF7B
:100970007E01C701DF91CF911F910F91FF90EF9002
:10098000DF90CF900895089580E090E00895CF9390
:10099000DF93009779F0FC0101900020E9F731978F
:1009A000AF01481B590BBC018BEE91E00E949904EA
:1009B000EC0102C0C0E0D0E042E050E060E671E04F
:1009C0008BEE91E00E9499048C0F9D1FDF91CF91D7
:1009D0000895CF92DF92EF92FF926B017C0120E0AD
:1009E00030E44CE156E40E94DE0D87FD07C08091A3
:1009F0008E02882309F183E691E018C020E030E000
:100A0000A901C701B6010E947F0C87FF07C0809132
:100A10008E02882389F08CE991E008C0C701B601F5
:100A2000FF90EF90DF90CF900C940403FF90EF9035
:100A3000DF90CF900C94C704FF90EF90DF90CF90A1
:100A40000895CF92DF92EF92FF922091DC013091D6
:100A5000DD0197FD03969595879595958795820F6E
:100A6000931F9093DD018093DC016091DC01709114
:100A7000DD01C090DE01D090DF01E090E001F09058
:100A8000E10161507109072E000C880B990B0E943F
:100A90002E0DA70196010E947F0C87FD14C0609166
:100AA000DC017091DD016F5F7F4F072E000C880B1A
:100AB000990B0E942E0D9B01AC01C701B6010E944B
:100AC000DE0D18169CF40E942B02603A7648814095
:100AD000910560F46091DC017091DD01072E000C3E
:100AE000880B990B0E942E0D0E94E9040E942B0294
:100AF0006093D8017093D9018093DA019093DB0160
:100B0000FF90EF90DF90CF900895CF92DF92EF9219
:100B1000FF920F931F930E942B02C090D801D09098
:100B2000D901E090DA01F090DB0100910001109111
:100B300001012091020130910301DC01CB018C19EC
:100B40009D09AE09BF0980179107A207B30708F4F2
:100B5000A7C082E00E9497019093D7018093D601AD
:100B600083E00E9497019093D5018093D401F8947B
:100B70008091D2019091D301019769F48091D601BF
:100B80009091D701892B39F48091D4019091D501AE
:100B9000892B09F45DC08091D2019091D301039714
:100BA00069F48091D6019091D701892B39F0809119
:100BB000D4019091D501892B09F04AC08091D201CE
:100BC0009091D301892B69F48091D6019091D7013E
:100BD000892B39F08091D4019091D501892B09F4AA
:100BE0004BC08091D2019091D301029661F4809123
:100BF000D6019091D701892B31F48091D401909145
:100C0000D501892BC9F58091D2019091D30184300F
:100C1000910521F08C3F2FEF920711F40E942105DE
:100C200078948091D6019091D701892BC9F1809158
:100C3000D4019091D501892B99F18091D2019091A5
:100C4000D301892B69F11092D3011092D20128C0EF
:100C50008091D2019091D30101969093D30180931A
:100C6000D2010E942B026093D8017093D901809326
:100C7000DA019093DB01A2CF8091D2019091D30150
:100C800001979093D3018093D2010E942B0260932D
:100C9000D8017093D9018093DA019093DB01B3CF2F
:100CA0001F910F91FF90EF90DF90CF900895CF921A
:100CB000DF92EF92FF920F931F930E942B02C0903E
:100CC000D801D090D901E090DA01F090DB010091D9
:100CD0000001109101012091020130910301DC011A
:100CE000CB018C199D09AE09BF0980179107A20796
:100CF000B30708F4A7C082E00E9497019093D70140
:100D00008093D60183E00E9497019093D501809350
:100D1000D401F8948091D2019091D301892B69F488
:100D20008091D6019091D701892B39F48091D4011B
:100D30009091D501892B09F05DC08091D2019091ED
:100D4000D301029769F48091D6019091D701892B44
:100D500039F08091D4019091D501892B09F44AC0D2
:100D60008091D2019091D301019669F48091D601CE
:100D70009091D701892B39F48091D4019091D501BC
:100D8000892B09F44BC08091D2019091D301039635
:100D900061F48091D6019091D701892B31F0809137
:100DA000D4019091D501892BC9F58091D201909100
:100DB000D3018430910521F08C3F2FEF920711F47D
:100DC0000E94210578948091D6019091D701892BBA
:100DD000C9F18091D4019091D501892B99F180912D
:100DE000D2019091D301892B69F11092D301109215
:100DF000D20128C08091D2019091D30101969093A5
:100E0000D3018093D2010E942B026093D80170938A
:100E1000D9018093DA019093DB01A2CF8091D201B6
:100E20009091D30101979093D3018093D2010E94B6
:100E30002B026093D8017093D9018093DA019093CB
:100E4000DB01B3CF1F910F91FF90EF90DF90CF9018
:100E500008950E94560E1F920F920FB60F92112402
:100E60002F933F938F939F93AF93BF93809188026B
:100E700090918902A0918A02B0918B023091E60193
:100E800023E0230F2D3720F40196A11DB11D05C0CD
:100E900026E8230F0296A11DB11D2093E601809341
:100EA000880290938902A0938A02B0938B0280916A
:100EB000E7019091E801A091E901B091EA01019662
:100EC000A11DB11D8093E7019093E801A093E90172
:100ED000B093EA01BF91AF919F918F913F912F9174
:100EE0000F900FBE0F901F9018951F920F920FB684
:100EF0000F9211242F933F934F935F936F937F93A0
:100F00008F939F93AF93BF93EF93FF93E09106016D
:100F1000F09107010995FF91EF91BF91AF919F91DA
:100F20008F917F916F915F914F913F912F910F9092
:100F30000FBE0F901F9018951F920F920FB60F9231
:100F400011242F933F934F935F936F937F938F93CE
:100F50009F93AF93BF93EF93FF93E0910401F091C0
:100F600005010995FF91EF91BF91AF919F918F91ED
:100F70007F916F915F914F913F912F910F900FBE95
:100F80000F901F9018951F920F920FB60F92112479
:100F90002F933F934F935F936F937F938F939F9381
:100FA000AF93BF93EF93FF938BEE91E00E94C90044
:100FB000FF91EF91BF91AF919F918F917F916F9131
:100FC0005F914F913F912F910F900FBE0F901F9007
:100FD00018951F920F920FB60F9211242F938F9393
:100FE0009F93EF93FF93E091FB01F091FC018081CF
:100FF000E0910102F091020282FD12C09081809185
:1010000004028F5F8F7320910502821751F0E091E7
:101010000402F0E0E551FE4F958F8093040201C079
:101020008081FF91EF919F918F912F910F900FBE33
:101030000F901F9018954F925F926F927F928F92B0
:101040009F92AF92BF92CF92DF92EF92FF92109257
:10105000EE011092ED0188EE93E0A0E0B0E0809305
:10106000EF019093F001A093F101B093F20182E5BA
:1010700091E09093EC018093EB0185EC90E09093EC
:10108000F8018093F70184EC90E09093FA0180934B
:10109000F90180EC90E09093FC018093FB0181ECDE
:1010A00090E09093FE018093FD0182EC90E090939C
:1010B00000028093FF0186EC90E0909302028093FF
:1010C0000102109204021092050210920602109280
:1010D00007021092E1021092E2021092E3021092D3
:1010E000E4021092E5021092E6021092E7021092DA
:1010F000E8021092E9021092EA021092EB021092BA
:10110000EC021092ED021092EE021092EF02109299
:10111000F0021092F1021092F2021092F302109279
:10112000F4021092F5021092F6021092F702109259
:10113000F8021092FB021092FC021092FE02109232
:10114000FD028FEF90E0909300038093FF021092D6
:1011500001031092020310920303109204031092F1
:1011600005031092060310920703109208031092D1
:10117000090310920A0310920B0310920C031092B1
:101180000D0310920E0310920F0310921003109291
:101190001103109212031092130310921403109271
:1011A00015031092160310921703109218038AE089
:1011B00090E09093FA028093F9022FB7F89480910F
:1011C000880290918902A0918A02B0918B022FBF70
:1011D000C090F902D090FA020D2C000CEE08FF0826
:1011E0008C0D9D1DAE1DBF1D80931503909316039E
:1011F000A0931703B09318038091FC02811102C0E1
:1012000061E001C06FEF062E000C770B880B990B85
:101210000E942E0D2B013C012DEC3CEC4CEC5DE3CF
:101220000E94E30D6093ED027093EE028093EF0253
:101230009093F0022DEC3CEC4CE45DE3C301B20171
:101240000E94E30D4B015C016093F1027093F20286
:101250008093F3029093F4022AE037ED43E25CE3DB
:10126000C301B2010E94E30D2B013C016093F50222
:101270007093F6028093F7029093F802C701B601CB
:101280000E942E0D20E030E04AE754E40E94840CD6
:101290006B017C016093010370930203809303034D
:1012A000909304039B01AC01C301B2010E94840C22
:1012B00060930503709306038093070390930803DC
:1012C000A7019601C501B4010E94E30D60930903D3
:1012D00070930A0380930B0390930C0310928C027B
:1012E00010928D0281E080938E0296E4E8E0F1E0B6
:1012F000ABE9B2E001900D929A95E1F790E19093FD
:101300008F0293E19093900292E19093910294E185
:101310009093920291E1909393028093940288E0DB
:1013200080939502109296028FE0809397028BE053
:10133000809398028CE0809399028DE080939A02CA
:10134000FF90EF90DF90CF90BF90AF909F908F90E5
:101350007F906F905F904F900895789484B58260ED
:1013600084BD84B5816084BD85B5826085BD85B549
:10137000816085BD80916E00816080936E001092C7
:101380008100809181008260809381008091810042
:1013900081608093810080918000816080938000D3
:1013A0008091B10084608093B1008091B000816031
:1013B0008093B00080917A00846080937A0080915D
:1013C0007A00826080937A0080917A0081608093B5
:1013D0007A0080917A00806880937A001092C10030
:1013E00060E082E00E94EF0160E083E00E94EF0194
:1013F00087E596E090930501809304018091690050
:101400008C7F816080936900E89A85E895E09093ED
:1014100007018093060180916900837F8460809337
:101420006900E99A1092FC026091F9027091FA0247
:10143000072E000C880B990B0E942E0D20E030E047
:101440004AE754E40E94840C6B017C016093010321
:101450007093020380930303909304031092FE029F
:101460001092FD028FEF90E0909300038093FF02B3
:101470006091DC017091DD01072E000C880B990B47
:101480000E942E0D6093E1027093E2028093E302CA
:101490009093E4028DEC9CECACECBDE38093ED0208
:1014A0009093EE02A093EF02B093F0028093F102CA
:1014B0009093F202A093F302B093F4028093F502AA
:1014C0009093F602A093F702B093F802A701960159
:1014D000BC01CD010E94840C609305037093060348
:1014E00080930703909308032DEC3CEC4CEC5DE3F8
:1014F000C701B6010E94E30D6093090370930A03CC
:1015000080930B0390930C0361E080918F020E9403
:10151000EF0161E0809190020E94EF0161E0809113
:1015200091020E94EF0161E0809192020E94EF011E
:1015300061E0809193020E94EF0161E0809194024A
:101540000E94EF0161E0809195020E94EF0161E04D
:10155000809196020E94EF0161E0809197020E94C3
:10156000EF0161E0809198020E94EF0161E08091BB
:1015700099020E94EF0161E080919A020E94EF01BE
:1015800061E080918F020E94C00161E08091900231
:101590000E94C00161E0809191020E94C00161E05F
:1015A000809192020E94C00160E0809193020E94AB
:1015B000C00160E0809194020E94C00160E08091CF
:1015C00095020E94C00160E0809196020E94C001D5
:1015D00060E0809197020E94C00160E080919802D3
:1015E0000E94C00160E0809199020E94C00160E009
:1015F00080919A020E94C00181E080938C02109237
:101600008D0210928E0280918000807E8160809396
:10161000800080918100807E89608093810061E0FC
:101620008AE00E94EF0161E089E00E94EF0161E041
:1016300081E10E94EF01C0E4C0937C0080917A00B8
:10164000806480937A0080917A0086FDFCCF60915F
:1016500078008091790070E0782B072E000C880BC1
:10166000990B0E942E0D6B017C0120E030E048ECCC
:1016700052E40E94E30D4B015C01A701960160E07A
:1016800070EC8FE794E40E94120C9B01AC01C50141
:10169000B4010E94840C6B017C016093E2017093A1
:1016A000E3018093E4019093E50120E030E0A9019B
:1016B0000E94DE0D181614F52AE939E940EA52E4D1
:1016C000C701B6010E947F0C1816C4F02FE632E164
:1016D0004BEB50E4C701B6010E94E30D20E030E877
:1016E00049E853E40E94120C6093DE017093DF011D
:1016F0008093E0019093E1010E94E904C090E2012F
:10170000D090E301E090E401F090E5012AE939E9A5
:1017100040EA52E4C701B6010E94DE0D181614F526
:101720002DEC3CEC40EF52E4C701B6010E947F0C67
:101730001816C4F028E431EE42EC50E4C701B601BB
:101740000E94E30D2AE939E141E953E40E94120CB9
:101750006093DE017093DF018093E0019093E101DB
:101760000E94E904C090E201D090E301E090E4011E
:10177000F090E5012DEC3CEC40EF52E4C701B601DE
:101780000E94DE0D181614F520E030E046E153E427
:10179000C701B6010E947F0C87FF18C023EC35EF0C
:1017A00048ED50E4C701B6010E94E30D20E030E0AF
:1017B00049EB53E40E94120C6093DE017093DF0149
:1017C0008093E0019093E1010E94E90420E030E081
:1017D00046E153E46091E2017091E3018091E401FC
:1017E0009091E5010E94DE0D18162CF460E070E087
:1017F000CB010E94040361E089E00E94C001809156
:10180000DE019091DF01A091E001B091E1018093B0
:10181000E5029093E602A093E702B093E8020E94EB
:1018200064010ACF5058BB27AA270E942A0C0C94A7
:10183000A40D0E94960D38F00E949D0D20F039F401
:101840009F3F19F426F40C94930D0EF4E095E7FBFA
:101850000C948D0DE92F0E94B50D58F3BA1762074D
:1018600073078407950720F079F4A6F50C94D70D3B
:101870000EF4E0950B2EBA2FA02D0B01B9019001AB
:101880000C01CA01A0011124FF27591B99F0593FEF
:1018900050F4503E68F11A16F040A22F232F342F37
:1018A0004427585FF3CF469537952795A795F04085
:1018B0005395C9F77EF41F16BA0B620B730B840B9A
:1018C000BAF09150A1F0FF0FBB1F661F771F881F52
:1018D000C2F70EC0BA0F621F731F841F48F48795AA
:1018E00077956795B795F7959E3F08F0B0CF93959C
:1018F000880F08F09927EE0F9795879508950E9415
:10190000690D08F481E008950E94980C0C94A40DD0
:101910000E949D0D58F00E94960D40F029F45F3F03
:1019200029F00C948D0D51110C94D80D0C94930D3D
:101930000E94B50D68F39923B1F3552391F3951BDC
:10194000550BBB27AA2762177307840738F09F5FE0
:101950005F4F220F331F441FAA1FA9F335D00E2E4D
:101960003AF0E0E832D091505040E695001CCAF7BA
:101970002BD0FE2F29D0660F771F881FBB1F26177D
:1019800037074807AB07B0E809F0BB0B802DBF0154
:10199000FF2793585F4F3AF09E3F510578F00C9423
:1019A0008D0D0C94D80D5F3FE4F3983ED4F38695EB
:1019B00077956795B795F7959F5FC9F7880F911D44
:1019C0009695879597F90895E1E0660F771F881F30
:1019D000BB1F621773078407BA0720F0621B730BE3
:1019E000840BBA0BEE1F88F7E09508950E94FD0C5A
:1019F0006894B1110C94D80D08950E94BD0D88F023
:101A00009F5798F0B92F9927B751B0F0E1F0660FC2
:101A1000771F881F991F1AF0BA95C9F714C0B13003
:101A200091F00E94D70DB1E008950C94D70D672F67
:101A3000782F8827B85F39F0B93FCCF38695779532
:101A40006795B395D9F73EF490958095709561951B
:101A50007F4F8F4F9F4F0895E89409C097FB3EF446
:101A600090958095709561957F4F8F4F9F4F9923EB
:101A7000A9F0F92F96E9BB279395F6958795779569
:101A80006795B795F111F8CFFAF4BB0F11F460FF29
:101A90001BC06F5F7F4F8F4F9F4F16C0882311F081
:101AA00096E911C0772321F09EE8872F762F05C095
:101AB000662371F096E8862F70E060E02AF09A9530
:101AC000660F771F881FDAF7880F9695879597F925
:101AD0000895990F0008550FAA0BE0E8FEEF1616BF
:101AE0001706E807F907C0F012161306E407F50712
:101AF00098F0621B730B840B950B39F40A2661F086
:101B0000232B242B252B21F408950A2609F4A14028
:101B1000A6958FEF811D811D089597F99F6780E835
:101B200070E060E008959FEF80EC089500240A942F
:101B30001616170618060906089500240A941216A8
:101B40001306140605060895092E0394000C11F4DB
:101B5000882352F0BB0F40F4BF2B11F460FF04C088
:101B60006F5F7F4F8F4F9F4F089557FD9058440FE1
:101B7000551F59F05F3F71F04795880F97FB991FEC
:101B800061F09F3F79F087950895121613061406A9
:101B9000551FF2CF4695F1DF08C016161706180636
:101BA000991FF1CF86957105610508940895E89411
:101BB000BB2766277727CB0197F908950E94690D07
:101BC00008F48FEF08950E94F60D0C94A40D0E9466
:101BD000960D38F00E949D0D20F0952311F00C9485
:101BE0008D0D0C94930D11240C94D80D0E94B50DFD
:101BF00070F3959FC1F3950F50E0551F629FF00160
:101C0000729FBB27F00DB11D639FAA27F00DB11D78
:101C1000AA1F649F6627B00DA11D661F829F222701
:101C2000B00DA11D621F739FB00DA11D621F839F88
:101C3000A00D611D221F749F3327A00D611D231F5E
:101C4000849F600D211D822F762F6A2F11249F57AC
:101C500050409AF0F1F088234AF0EE0FFF1FBB1FAF
:101C6000661F771F881F91505040A9F79E3F51056E
:101C700080F00C948D0D0C94D80D5F3FE4F3983EEA
:101C8000D4F3869577956795B795F795E7959F5F18
:101C9000C1F7FE2B880F911D9695879597F90895AA
:101CA000EE0FFF1F0590F491E02D099481E090E084
:0A1CB000F8940C945B0EF894FFCF3B
:101CBA0032000000980498040101010101010000AA
:101CCA000101000000000101000101000101010100
:101CDA0001000001000101000001010100010100F1
:101CEA0001010100010101010101010100000000DF
:101CFA0001010101010101010101010001010000CD
:101D0A000000EB0099048C003801BD009B00AF0075
:101D1A000D0A005B4572726F725D28344469676907
:101D2A007437536567313250696E293A20496E70AB
:101D3A0075742076616C7565206C617267657220B6
:101D4A007468616E2031303030302E005B4572721B
:101D5A006F725D2834446967697437536567313235
:101D6A0050696E293A20496E7075742076616C75D7
:101D7A006520736D616C6C6572207468616E2030C9
:021D8A002E0029
:00000001FF
