:100000000C9462000C9466050C943F050C948A00D5
:100010000C948A000C948A000C948A000C948A0038
:100020000C948A000C948A000C948A000C948A0028
:100030000C948A000C948A000C948A000C948A0018
:100040000C94F5040C948A000C94B3050C948D0563
:100050000C948A000C948A000C948A000C948A00F8
:100060000C948A000C948A000000000024002700F1
:100070002A0000000000250028002B0000000000DE
:1000800023002600290004040404040404040202DA
:100090000202020203030303030301020408102007
:1000A0004080010204081020010204081020000012
:1000B0000008000201000003040700000000000027
:1000C0000000E50511241FBECFEFD8E0DEBFCDBF95
:1000D00011E0A0E0B1E0E6EBF7E102C005900D927F
:1000E000A23DB107D9F722E0A2EDB1E001C01D9217
:1000F000AD3DB207E1F710E0C2E6D0E004C02197C1
:10010000FE010E94CE0BC136D107C9F70E943B0603
:100110000C94D90B0C940000FC01538D448D252FB9
:1001200030E0842F90E0821B930B541710F0CF9691
:10013000089501970895FC01918D828D981761F0C3
:10014000828DDF01A80FB11D5D968C91928D9F5F0E
:100150009F73928F90E008958FEF9FEF0895FC01B9
:10016000918D828D981731F0828DE80FF11D858D6C
:1001700090E008958FEF9FEF0895FC01918D228DFF
:10018000892F90E0805C9F4F821B91098F73992784
:100190000895FC01848DDF01A80FB11DA35ABF4F44
:1001A0002C91848D90E001968F739927848FA68976
:1001B000B7892C93A089B1898C91837080648C93CA
:1001C000938D848D981306C00288F389E02D808179
:1001D0008F7D80830895EF92FF920F931F93CF93AB
:1001E000DF93EC0181E0888F9B8D8C8D981305C087
:1001F000E889F989808185FD26C0F62E0B8D10E0F7
:100200000F5F1F4F0F731127E02E8C8DE8120CC06B
:100210000FB607FCFACFE889F989808185FFF5CF11
:10022000CE010E94C900F1CF8B8DFE01E80FF11DB8
:10023000E35AFF4FF0829FB7F8940B8FEA89FB894E
:10024000808180620AC09FB7F894EE89FF8960833D
:10025000E889F98980818370806480839FBF81E011
:1002600090E0DF91CF911F910F91FF90EF90089553
:10027000CF93DF93EC01888D8823C9F0EA89FB894D
:10028000808185FD05C0A889B9898C9186FD0FC044
:100290000FB607FCF5CF808185FFF2CFA889B98919
:1002A0008C9185FFEDCFCE010E94C900E7CFDF9191
:1002B000CF9108958BEE91E00E94BD0021E0892B43
:1002C00009F420E0822F089580E090E0892B29F046
:1002D0000E945A0181110C9400000895833081F02E
:1002E00028F4813099F08230A1F008958730A9F088
:1002F0008830B9F08430D1F4809180008F7D03C0C4
:10030000809180008F7780938000089584B58F77E7
:1003100002C084B58F7D84BD08958091B0008F7731
:1003200003C08091B0008F7D8093B0000895CF937B
:10033000DF93282F30E0F901E255FF4F8491F90156
:10034000E656FF4FD491F901EA57FF4FC491CC23F1
:1003500091F081110E946E01EC2FF0E0EE0FFF1F73
:10036000E458FF4FA591B491EC91ED2381E090E02A
:1003700021F480E002C080E090E0DF91CF91089509
:100380001F93CF93DF93282F30E0F901E255FF4F01
:100390008491F901E656FF4FD491F901EA57FF4FD6
:1003A000C491CC23C1F0162F81110E946E01EC2F55
:1003B000F0E0EE0FFF1FEE58FF4FA591B4919FB7ED
:1003C000F894111104C08C91D095D82302C0EC91FF
:1003D000DE2BDC939FBFDF91CF911F910895CF93C8
:1003E000DF9390E0FC01E656FF4F2491FC01EA57B1
:1003F000FF4F8491882361F190E0880F991FFC01E1
:10040000E859FF4FC591D491FC01EE58FF4FA591DB
:10041000B491611109C09FB7F89488812095822317
:100420008883EC912E230BC0623061F49FB7F8945F
:100430008881322F309583238883EC912E2B2C9347
:100440009FBF06C08FB7F894E8812E2B28838FBFFB
:10045000DF91CF9108953FB7F8948091E701909193
:10046000E801A091E901B091EA0126B5A89B05C079
:100470002F3F19F00196A11DB11D3FBFBA2FA92F23
:10048000982F8827820F911DA11DB11DBC01CD01A0
:1004900042E0660F771F881F991F4A95D1F708958C
:1004A000CF92DF92EF92FF92CF93DF93C62FF42E7D
:1004B0008130E9F0A8F0823031F18330C1F561E09C
:1004C00080918B020E94C00161E080918C020E94A9
:1004D000C00161E080918D020E94C00160E023C0F4
:1004E00060E080918B020E94C00161E006C061E083
:1004F00080918B020E94C00160E080918C020E947A
:10050000C00161E00BC061E080918B020E94C001DC
:1005100061E080918C020E94C00160E080918D02B8
:100520000E94C00161E080918E020E94C00127E01C
:10053000C29FE0011124C857DD4F6F8580918F0263
:100540000E94C0016889809190020E94C00169895F
:10055000809191020E94C0016A89809192020E945A
:10056000C0016B89809193020E94C0016C898091C7
:1005700094020E94C0016D89809195020E94C00181
:100580006F2D809196020E94C0010E942B026B0188
:100590007C010E942B02DC01CB018C199D09AE0964
:1005A000BF09883E9340A105B10598F360E08091B2
:1005B0008F020E94C00160E0809190020E94C00101
:1005C00060E0809191020E94C00160E080919202FF
:1005D0000E94C00160E0809193020E94C00160E02F
:1005E000809194020E94C00160E0809195020E9477
:1005F000C00160E080919602DF91CF91FF90EF9073
:10060000DF90CF900C94C0010895CF92DF92EF92CB
:10061000FF920F931F93CF93DF936C017A018B01AD
:10062000C0E0D0E0CE15DF0581F0D8016D918D01DD
:10063000D601ED91FC910190F081E02DC601099564
:10064000892B11F02196EECF7E01C701DF91CF916A
:100650001F910F91FF90EF90DF90CF900895089534
:1006600080E090E008958430910521F08C3F2FEFD9
:100670009207D1F42091DC013091DD0197FD0396C2
:100680009595879595958795820F931F9093DD019A
:100690008093DC010E942B026093D8017093D901F2
:1006A0008093DA019093DB010895CF92DF92EF926D
:1006B000FF920F931F930E942B02C090D801D090FD
:1006C000D901E090DA01F090DB0100910001109176
:1006D00001012091020130910301DC01CB018C1951
:1006E0009D09AE09BF0980179107A207B30708F457
:1006F000A0C082E00E9497019093D7018093D60119
:1007000083E00E9497019093D5018093D401F894DF
:100710008091D2019091D301019769F48091D60123
:100720009091D701892B39F48091D4019091D50112
:10073000892B09F456C08091D2019091D30103977F
:1007400069F48091D6019091D701892B39F080917D
:10075000D4019091D501892B09F043C08091D20139
:100760009091D301892B69F48091D6019091D701A2
:10077000892B39F08091D4019091D501892B09F40E
:1007800044C08091D2019091D301029661F480918E
:10079000D6019091D701892B31F48091D4019091A9
:1007A000D501892B91F58091D2019091D3010E94BE
:1007B000330378948091D6019091D701892BC9F1A8
:1007C0008091D4019091D501892B99F18091D2012A
:1007D0009091D301892B69F11092D3011092D2012B
:1007E00028C08091D2019091D30101969093D301BA
:1007F0008093D2010E942B026093D8017093D9019B
:100800008093DA019093DB01A9CF8091D20190917E
:10081000D30101979093D3018093D2010E942B02C0
:100820006093D8017093D9018093DA019093DB0132
:10083000BACF1F910F91FF90EF90DF90CF90089566
:10084000CF92DF92EF92FF920F931F930E942B02A1
:10085000C090D801D090D901E090DA01F090DB018E
:1008600000910001109101012091020130910301DA
:10087000DC01CB018C199D09AE09BF0980179107D6
:10088000A207B30708F4A0C082E00E9497019093EA
:10089000D7018093D60183E00E9497019093D50100
:1008A0008093D401F8948091D2019091D301892B47
:1008B00069F48091D6019091D701892B39F4809108
:1008C000D4019091D501892B09F056C08091D201B5
:1008D0009091D301029769F48091D6019091D7014C
:1008E000892B39F08091D4019091D501892B09F49D
:1008F00043C08091D2019091D301019669F4809117
:10090000D6019091D701892B39F48091D40190912F
:10091000D501892B09F444C08091D2019091D30173
:10092000039661F48091D6019091D701892B31F023
:100930008091D4019091D501892B91F58091D201BC
:100940009091D3010E94330378948091D6019091C5
:10095000D701892BC9F18091D4019091D501892BC0
:1009600099F18091D2019091D301892B69F1109274
:10097000D3011092D20128C08091D2019091D3016D
:1009800001969093D3018093D2010E942B02609331
:10099000D8017093D9018093DA019093DB01A9CF3C
:1009A0008091D2019091D30101979093D3018093CC
:1009B000D2010E942B026093D8017093D9018093D9
:1009C000DA019093DB01BACF1F910F91FF90EF9066
:1009D000DF90CF90089542E050E060E671E08BEE4A
:1009E00091E00C9405030E94D40B1F920F920FB656
:1009F0000F9211242F933F938F939F93AF93BF93A5
:100A00008091E3019091E401A091E501B091E601AC
:100A10003091E20123E0230F2D3720F40196A11D30
:100A2000B11D05C026E8230F0296A11DB11D20931C
:100A3000E2018093E3019093E401A093E501B09378
:100A4000E6018091E7019091E801A091E901B09160
:100A5000EA010196A11DB11D8093E7019093E80181
:100A6000A093E901B093EA01BF91AF919F918F915B
:100A70003F912F910F900FBE0F901F9018951F92CE
:100A80000F920FB60F9211242F933F934F935F93C2
:100A90006F937F938F939F93AF93BF93EF93FF9346
:100AA000E0910601F09107010995FF91EF91BF9147
:100AB000AF919F918F917F916F915F914F913F91F6
:100AC0002F910F900FBE0F901F9018951F920F92AD
:100AD0000FB60F9211242F933F934F935F936F9311
:100AE0007F938F939F93AF93BF93EF93FF93E09187
:100AF0000401F09105010995FF91EF91BF91AF912C
:100B00009F918F917F916F915F914F913F912F9125
:100B10000F900FBE0F901F9018951F920F920FB657
:100B20000F9211242F933F934F935F936F937F9373
:100B30008F939F93AF93BF93EF93FF938BEE91E0CF
:100B40000E94C900FF91EF91BF91AF919F918F914A
:100B50007F916F915F914F913F912F910F900FBEB9
:100B60000F901F9018951F920F920FB60F9211249D
:100B70002F938F939F93EF93FF93E091FB01F0915D
:100B8000FC018081E0910102F091020282FD12C01D
:100B90009081809104028F5F8F73209105028217EC
:100BA00051F0E0910402F0E0E551FE4F958F809303
:100BB000040201C08081FF91EF919F918F912F914D
:100BC0000F900FBE0F901F901895CF93DF93EBEE11
:100BD000F1E01382128288EE93E0A0E0B0E084831B
:100BE0009583A683B78382E591E09183808385EC2A
:100BF00090E09587848784EC90E09787868780ECE7
:100C000090E0918B808B81EC90E0938B828B82ECD7
:100C100090E0958B848B86EC90E0978B868B118E81
:100C2000128E138E148EC8E8D2E01882198281E0E9
:100C30008A8396E4E8E0F1E0A7E9B2E001900D9242
:100C40009A95E1F790E19B8393E19C8392E19D83E8
:100C500094E19E8391E19F83888788E089871A8643
:100C60008FE08B878BE08C878CE08D878DE08E8783
:100C7000DF91CF910895789484B5826084BD84B566
:100C8000816084BD85B5826085BD85B5816085BD87
:100C900080916E00816080936E001092810080913F
:100CA00081008260809381008091810081608093C7
:100CB0008100809180008160809380008091B100EC
:100CC00084608093B1008091B00081608093B00017
:100CD00080917A00846080937A0080917A008260AB
:100CE00080937A0080917A00816080937A0080916D
:100CF0007A00806880937A001092C10060E082E000
:100D00000E94EF0160E083E00E94EF0180E294E046
:100D10009093050180930401809169008C7F81602C
:100D200080936900E89A85E593E0909307018093AA
:100D3000060180916900837F846080936900E99A4D
:100D400061E080918B020E94EF0161E080918C0252
:100D50000E94EF0161E080918D020E94EF0161E04D
:100D600080918E020E94EF0161E080918F020E94CB
:100D7000EF0161E0809190020E94EF0161E08091BB
:100D800091020E94EF0161E0809192020E94EF01C6
:100D900061E0809193020E94EF0161E080919402F2
:100DA0000E94EF0161E0809195020E94EF0161E0F5
:100DB000809196020E94EF0161E080918B020E9477
:100DC000C00161E080918C020E94C00161E08091CD
:100DD0008D020E94C00161E080918E020E94C001DC
:100DE00060E080918F020E94C00160E080919002DB
:100DF0000E94C00160E0809191020E94C00160E009
:100E0000809192020E94C00160E0809193020E9452
:100E1000C00160E0809194020E94C00160E0809176
:100E200095020E94C00160E0809196020E94C0017C
:100E300081E0809388021092890210928A02809148
:100E40008000807E81608093800080918100807E20
:100E500089608093810061E08AE00E94EF0161E097
:100E600089E00E94EF0161E081E10E94EF0180E4EE
:100E7000882EC8EBD0E094E6992E08EE13E080921D
:100E80007C0080917A00806480937A0080917A005F
:100E900086FDFCCF609178008091790070E0782B1E
:100EA000072E000C880B990B0E94AC0A6B017C0189
:100EB00020E030E048EC52E40E94610B2B013C0141
:100EC000A701960160E070EC8FE794E40E9490091E
:100ED0009B01AC01C301B2010E94020A6093DE01D2
:100EE0007093DF018093E0019093E1012AE038E6FE
:100EF00040EA5CE3C701B6010E94020A0E94740A3C
:100F00006B017C015B0161E08AE00E94EF01C1148A
:100F1000D10411F460E005C08FEFC816D10429F4A4
:100F200061E08AE00E94C00143C0FE0184918330E9
:100F3000F9F048F48130B9F08230A1F584B58062CF
:100F400084BDC8BC35C08730E9F0883019F18430E1
:100F500049F580918000806280938000D0928B0060
:100F6000C0928A0025C084B5806884BDC7BC20C0FB
:100F700080918000806880938000D0928900C09228
:100F8000880016C08091B00080688093B000C09245
:100F9000B3000EC08091B00080628093B000C09218
:100FA000B40006C0F0E8AF16B1040CF0B9CFB2CF70
:100FB000C090DE01D090DF01E090E001F090E1010F
:100FC00020E030E44CE156E4C701B6010E945C0B1E
:100FD00087FD05C080918A02811192C18EC120E0F7
:100FE00030E0A901C701B6010E94FD0987FF05C0D5
:100FF00080918A02811189C180C120E030E04AE7F6
:1010000054E4C701B6010E945C0B87FD77C020E065
:1010100030E04AE754E4C701B6010E94020A2B01FE
:101020003C010E947B0A40E080E00E945002C30124
:10103000B2010E94740A069F9001079F300D169F0F
:10104000300D1124B901330F880B990B0E94AC0AA3
:101050009B01AC01C701B6010E9490096B017C01A4
:1010600020E030E048EC52E40E94020A2B013C01EF
:101070000E947B0A40E081E00E945002C301B2015D
:101080000E94740A969E9001979E300D1124B9011A
:10109000330F880B990B0E94AC0A9B01AC01C7016E
:1010A000B6010E9490096B017C0120E030E040E233
:1010B00051E40E94020A2B013C010E947B0A40E09D
:1010C00082E00E945002C301B2010E94740A2AE029
:1010D000269FA001279F500D1124BA01550F880BA0
:1010E000990B0E94AC0A9B01AC01C701B6010E949A
:1010F00090090E94740A40918802FCC020E030E010
:1011000048EC52E4C701B6010E945C0B87FD53C056
:1011100020E030E048EC52E4C701B6010E94020A28
:101120002B013C010E947B0A40E080E00E945002BB
:10113000C301B2010E94740A969E9001979E300DE1
:101140001124B901330F880B990B0E94AC0A9B0143
:10115000AC01C701B6010E9490096B017C0120E03F
:1011600030E040E251E40E94020A2B013C010E945F
:101170007B0A40E081E00E945002C301B2010E945C
:10118000740A2AE0269FA001279F500D1124BA015E
:10119000550F880B990B0E94AC0A9B01AC01C7014B
:1011A000B6010E9490092B013C010E94740A6B0158
:1011B0007C0141E06AC020E030E040E251E4C70138
:1011C000B6010E945C0B87FD3BC020E030E040E2AE
:1011D00051E4C701B6010E94020A2B013C010E94A2
:1011E0007B0A40E080E00E945002C301B2010E94ED
:1011F000740A2AE0269FA001279F500D1124BA01EE
:10120000550F880B990B0E94AC0A9B01AC01C701DA
:10121000B6010E9490092B013C010E94740A6B01E7
:101220007C0141E081E00E945002B601DD0C880B98
:10123000990B0E94AC0A9B01AC01C301B20116C01C
:1012400010928902C701B6010E94740A2B013C0169
:1012500041E081E00E945002B201550C880B990BCD
:101260000E94AC0A9B01AC01C701B6010E94900923
:1012700020E030E040E251E40E94610B2B013C0190
:101280000E94740A6B017C0140E06C2D82E00E9498
:101290005002B601DD0C880B990B0E94AC0A9B0131
:1012A000AC01C301B2010E94900920E030E040E2AD
:1012B00051E40E94610B2B013C010E94740A6B01F6
:1012C0007C01072E000C880B990B0E94AC0A9B0135
:1012D000AC01C301B2010E94900920E030E040E07F
:1012E0005FE30E945C0B18161CF461E06C0D01C0FA
:1012F0006C2D40E083E00E9450020E946401BFCD4B
:1013000048E350E063E671E004C045E350E06CE977
:1013100071E08BEE91E00E9405030E94EB04EDCF9B
:101320005058BB27AA270E94A8090C94220B0E94A0
:10133000140B38F00E941B0B20F039F49F3F19F476
:1013400026F40C94110B0EF4E095E7FB0C940B0BB8
:10135000E92F0E94330B58F3BA176207730784070B
:10136000950720F079F4A6F50C94550B0EF4E09552
:101370000B2EBA2FA02D0B01B90190010C01CA014F
:10138000A0011124FF27591B99F0593F50F4503EFA
:1013900068F11A16F040A22F232F342F4427585FEC
:1013A000F3CF469537952795A795F0405395C9F704
:1013B0007EF41F16BA0B620B730B840BBAF09150BC
:1013C000A1F0FF0FBB1F661F771F881FC2F70EC05B
:1013D000BA0F621F731F841F48F48795779567952E
:1013E000B795F7959E3F08F0B0CF9395880F08F01A
:1013F0009927EE0F9795879508950E94E70A08F4BC
:1014000081E008950E94160A0C94220B0E941B0B87
:1014100058F00E94140B40F029F45F3F29F00C941F
:101420000B0B51110C94560B0C94110B0E94330BA7
:1014300068F39923B1F3552391F3951B550BBB2703
:10144000AA2762177307840738F09F5F5F4F220F48
:10145000331F441FAA1FA9F335D00E2E3AF0E0E83F
:1014600032D091505040E695001CCAF72BD0FE2F89
:1014700029D0660F771F881FBB1F2617370748071D
:10148000AB07B0E809F0BB0B802DBF01FF279358D5
:101490005F4F3AF09E3F510578F00C940B0B0C9483
:1014A000560B5F3FE4F3983ED4F3869577956795A6
:1014B000B795F7959F5FC9F7880F911D969587950A
:1014C00097F90895E1E0660F771F881FBB1F621729
:1014D00073078407BA0720F0621B730B840BBA0BE7
:1014E000EE1F88F7E09508950E947B0A6894B11179
:1014F0000C94560B08950E943B0B88F09F5798F070
:10150000B92F9927B751B0F0E1F0660F771F881F08
:10151000991F1AF0BA95C9F714C0B13091F00E9422
:10152000550BB1E008950C94550B672F782F882741
:10153000B85F39F0B93FCCF3869577956795B39549
:10154000D9F73EF490958095709561957F4F8F4FB8
:101550009F4F0895E89409C097FB3EF490958095BD
:10156000709561957F4F8F4F9F4F9923A9F0F92F69
:1015700096E9BB279395F695879577956795B795E7
:10158000F111F8CFFAF4BB0F11F460FF1BC06F5FCD
:101590007F4F8F4F9F4F16C0882311F096E911C0DF
:1015A000772321F09EE8872F762F05C0662371F000
:1015B00096E8862F70E060E02AF09A95660F771F14
:1015C000881FDAF7880F9695879597F90895990FF0
:1015D0000008550FAA0BE0E8FEEF16161706E807FD
:1015E000F907C0F012161306E407F50798F0621B1E
:1015F000730B840B950B39F40A2661F0232B242BF3
:10160000252B21F408950A2609F4A140A6958FEF11
:10161000811D811D089597F99F6780E870E060E063
:1016200008959FEF80EC089500240A94161617067B
:1016300018060906089500240A94121613061406C3
:1016400005060895092E0394000C11F4882352F026
:10165000BB0F40F4BF2B11F460FF04C06F5F7F4FDE
:101660008F4F9F4F089557FD9058440F551F59F0C5
:101670005F3F71F04795880F97FB991F61F09F3F7F
:1016800079F087950895121613061406551FF2CFA8
:101690004695F1DF08C0161617061806991FF1CFF8
:1016A00086957105610508940895E894BB2766271F
:1016B0007727CB0197F908950E94E70A08F48FEF86
:1016C00008950E94740B0C94220B0E94140B38F0A6
:1016D0000E941B0B20F0952311F00C940B0B0C9423
:1016E000110B11240C94560B0E94330B70F3959F31
:1016F000C1F3950F50E0551F629FF001729FBB2709
:10170000F00DB11D639FAA27F00DB11DAA1F649FA4
:101710006627B00DA11D661F829F2227B00DA11D57
:10172000621F739FB00DA11D621F839FA00D611DDD
:10173000221F749F3327A00D611D231F849F600DFE
:10174000211D822F762F6A2F11249F5750409AF027
:10175000F1F088234AF0EE0FFF1FBB1F661F771FB3
:10176000881F91505040A9F79E3F510580F00C947E
:101770000B0B0C94560B5F3FE4F3983ED4F3869525
:1017800077956795B795F795E7959F5FC1F7FE2B1E
:10179000880F911D9695879597F90895EE0FFF1F75
:1017A0000590F491E02D099481E090E0F8940C9478
:0617B000D90BF894FFCFF5
:1017B60032000000040304030101010101010000DD
:1017C6000101000000000101000101000101010109
:1017D60001000001000101000001010100010100FA
:1017E60001010100010101010101010100000000E8
:1017F60001010101010101010101010001010000D6
:101806000000EB0005038C003801BD009B00AF0013
:101816000D0A005B4572726F725D28344469676910
:101826007437536567313250696E293A20496E70B4
:1018360075742076616C7565206C617267657220BF
:101846007468616E2031303030302E005B45727224
:101856006F725D283444696769743753656731323E
:1018660050696E293A20496E7075742076616C75E0
:101876006520736D616C6C6572207468616E2030D2
:021886002E0032
:107E0000112484B714BE81FFF0D085E080938100F7
:107E100082E08093C00088E18093C10086E0809377
:107E2000C20080E18093C4008EE0C9D0259A86E02C
:107E300020E33CEF91E0309385002093840096BBD3
:107E4000B09BFECF1D9AA8958150A9F7CC24DD24C4
:107E500088248394B5E0AB2EA1E19A2EF3E0BF2EE7
:107E6000A2D0813461F49FD0082FAFD0023811F036
:107E7000013811F484E001C083E08DD089C08234E0
:107E800011F484E103C0853419F485E0A6D080C0E4
:107E9000853579F488D0E82EFF2485D0082F10E0AE
:107EA000102F00270E291F29000F111F8ED06801E7
:107EB0006FC0863521F484E090D080E0DECF843638
:107EC00009F040C070D06FD0082F6DD080E0C81688
:107ED00080E7D80618F4F601B7BEE895C0E0D1E017
:107EE00062D089930C17E1F7F0E0CF16F0E7DF06D8
:107EF00018F0F601B7BEE89568D007B600FCFDCFD4
:107F0000A601A0E0B1E02C9130E011968C91119780
:107F100090E0982F8827822B932B1296FA010C0160
:107F200087BEE89511244E5F5F4FF1E0A038BF0790
:107F300051F7F601A7BEE89507B600FCFDCF97BE46
:107F4000E89526C08437B1F42ED02DD0F82E2BD052
:107F50003CD0F601EF2C8F010F5F1F4F84911BD097
:107F6000EA94F801C1F70894C11CD11CFA94CF0C13
:107F7000D11C0EC0853739F428D08EE10CD085E9AC
:107F80000AD08FE07ACF813511F488E018D01DD067
:107F900080E101D065CF982F8091C00085FFFCCF94
:107FA0009093C60008958091C00087FFFCCF809118
:107FB000C00084FD01C0A8958091C6000895E0E648
:107FC000F0E098E1908380830895EDDF803219F02E
:107FD00088E0F5DFFFCF84E1DECF1F93182FE3DFCA
:107FE0001150E9F7F2DF1F91089580E0E8DFEE27F6
:047FF000FF270994CA
:027FFE00040479
:0400000300007E007B
:00000001FF
