:100000000C9462000C948A000C948A000C948A0070
:100010000C948A000C948A000C948A000C948A0038
:100020000C948A000C948A000C948A000C948A0028
:100030000C948A000C948A000C948A000C948A0018
:100040000C94B3050C948A000C948A000C948A00DA
:100050000C948A000C948A000C948A000C948A00F8
:100060000C9428020C948A00000000002300260053
:10007000290000000008000201000003040700003E
:1000800000000000000000000000250028002B00F8
:1000900000000000240027002A00040404040404D3
:1000A0000404020202020202030303030303010227
:1000B00004081020408001020408102001020408F6
:1000C00010203E0C11241FBECFEFD4E0DEBFCDBF09
:1000D00011E0A0E0B1E0ECE8FCE102C005900D9277
:1000E000A638B107D9F722E0A6E8B1E001C01D9219
:1000F000A438B207E1F710E0C2E6D0E004C02197CF
:10010000FE010E94390EC136D107C9F70E94FD05D4
:100110000C94440E0C940000CF92DF92EF92FF9269
:100120000F931F93CF93DF936C017A018B01C0E093
:10013000D0E0CE15DF0581F0D8016D918D01D6019B
:10014000ED91FC910190F081E02DC6010995892B7C
:1001500011F02196EECF7E01C701DF91CF911F9163
:100160000F91FF90EF90DF90CF90089585ED8093F1
:10017000BC008091BC0084FDFCCF10925E0208950B
:100180004091C601262F30E0240F311D2132310568
:10019000DCF420915E022430C9F4FC0180E090E0A0
:1001A000861758F43091C6012191DC01AA55BE4F43
:1001B000A30FB11D2C930196F3CF8091C601680F58
:1001C0006093C60180E0089581E0089582E008957B
:1001D000089508950895E091620280916102E81700
:1001E00030F4F0E0EA57FE4F808190E008958FEF01
:1001F0009FEF08959091620280916102981750F4E8
:10020000E92FF0E0EA57FE4F208130E09F5F9093A6
:10021000620202C02FEF3FEFC90108958091610291
:1002200090E020916202821B91090895CF92DF92A3
:10023000EF92FF920F931F93CF93DF937C01CB013B
:100240008A0120910D02222389F0EB016B01C40E7B
:10025000D51ECC15DD0569F06991D701ED91FC91B2
:100260000190F081E02DC7010995F3CF642F0E9422
:10027000C000C801DF91CF911F910F91FF90EF90C7
:10028000DF90CF900895CF93DF931F92CDB7DEB765
:10029000698320910D022223D1F020915F02203248
:1002A00040F021E030E0FC013383228380E090E0E5
:1002B00015C080916002E82FF0E0E25FFD4F998168
:1002C00090838F5F8093600280935F0205C061E03E
:1002D000CE0101960E94C00081E090E00F90DF9176
:1002E000CF910895089580E090E008950E943F0E18
:1002F0001F93CF93DF93EC01162F0E945E0C18170B
:1003000039F0612FCE01DF91CF911F910C94660CD3
:10031000DF91CF911F9108950C945E0CCF93FC0157
:10032000C48121E020930D02C0932E02109260023E
:1003300010925F028385682B83E692E00E9443015E
:1003400090915F02913208F045C080915E02811168
:10035000FCCF82E080935E0281E080935D028FEFAC
:1003600080930C0210920B0290930A02AEE0B2E06E
:10037000EAEEF1E080E0981721F02D9121938F5F54
:10038000FACF1092E9018091E901CC0FC82BC093FC
:10039000E90180915C02813061F410925C028091ED
:1003A000E9018093BB008091BC0083FDF8CF85EC10
:1003B00001C085EE8093BC0080915E028230E1F343
:1003C00080910C028F3F31F080910C02803211F04D
:1003D00080910C021092600210925F0210920D0246
:1003E000CF9108950F931F93CF938C01C62F0E9436
:1003F0008E016C2F6460C8010E948E016C2F6B7F90
:10040000C8010E948E0183EC90E00197F1F7CF9133
:100410001F910F9108950F931F93CF93DF938C013A
:10042000C62FD42F607F642B0E94F20180E1C89F09
:10043000B00111246D2BC801DF91CF911F910F9155
:100440000C94F20141E00E940B0281E090E00895DB
:100450001F920F920FB60F9211242F933F934F9339
:100460005F936F937F938F939F93AF93BF93EF931C
:10047000FF938091B900887F803609F49CC068F5AD
:10048000883209F45BC090F4803109F454C038F428
:10049000882309F4F6C0883009F44DC0F6C08831CD
:1004A00009F44CC0803209F45DC0EFC0803409F417
:1004B00068C048F4803309F455C0883309F0E5C0BA
:1004C00080930C02D8C0803509F44FC0883509F4F8
:1004D0005DC0883409F0D9C0D6C0883909F4C7C0D6
:1004E000A8F4883709F467C038F4883609F463C083
:1004F000803709F460C0C9C0883809F4B8C08039B1
:1005000009F45FC0803809F0C0C05BC0803B09F4CB
:1005100086C038F4803A09F466C0883A09F47FC08E
:10052000B4C0803C09F4A7C0883C09F4A4C0883B4F
:1005300009F48AC0AAC08091E90110C090910B0211
:1005400080910A02981770F5E0910B0281E08E0FFE
:1005500080930B02F0E0E651FE4F80818093BB0058
:1005600085EC86C080930C028EC0E0910B0281E086
:100570008E0F80930B028091BB00F0E0E651FE4F9E
:10058000808390910B0280910A026EC0E0910B0271
:1005900081E08E0F80930B028091BB00F0E0E6516A
:1005A000FE4F808380915D0281116DC081E0809358
:1005B0005C0284EA61C083E080935E021092E801ED
:1005C000CFCF8091E801803208F051C0E091E8017E
:1005D00081E08E0F8093E8018091BB00F0E0E8534A
:1005E000FE4F8083BDCF85EC8093BC0010925E02ED
:1005F0008091E801803230F4E091E801F0E0E853C6
:10060000FE4F10826091E80170E0E0915802F09195
:10061000590288EC91E009951092E80136C084E017
:1006200080935E021092C7011092C601E0915A02B7
:10063000F0915B0209958091C601811105C081E0AE
:100640008093C6011092A601E091C70181E08E0F50
:100650008093C701F0E0EA55FE4F80818093BB0094
:100660009091C7018091C601981708F479CF85E869
:100670008093BC000AC085EC8093BC0010925E029F
:1006800004C010920C020E94B600FF91EF91BF913E
:10069000AF919F918F917F916F915F914F913F911A
:1006A0002F910F900FBE0F901F901895833081F0FF
:1006B00028F4813099F08230A1F008958730A9F0B4
:1006C0008830B9F08430D1F4809180008F7D03C0F0
:1006D000809180008F7780938000089584B58F7714
:1006E00002C084B58F7D84BD08958091B0008F775E
:1006F00003C08091B0008F7D8093B0000895CF93A8
:10070000DF93282F30E0F901EE58FF4F8491F90173
:10071000E255FF4FD491F901E656FF4FC491CC2327
:1007200089F081110E945603EC2FF0E0EE0FFF1FBD
:10073000EA57FF4FA591B4918FB7F894EC91ED2B48
:10074000EC938FBFDF91CF9108953FB7F8948091DC
:10075000800290918102A0918202B091830226B51D
:10076000A89B05C02F3F19F00196A11DB11D3FBFE9
:10077000BA2FA92F982F8827820F911DA11DB11D77
:10078000BC01CD0142E0660F771F881F991F4A9573
:10079000D1F708958F929F92AF92BF92CF92DF923E
:1007A000EF92FF926B017C010E94A5034B015C015B
:1007B000C114D104E104F104F1F00E94A503DC01AD
:1007C000CB0188199909AA09BB09883E9340A10564
:1007D000B10570F321E0C21AD108E108F10888EEF2
:1007E000880E83E0981EA11CB11CC114D104E10441
:1007F000F10419F7DDCFFF90EF90DF90CF90BF901D
:10080000AF909F908F900895009769F0FC01019040
:100810000020E9F73197AF01481B590BBC018FE667
:1008200092E00C948C0080E090E00895CF93DF93E9
:1008300090E0FC01E255FF4F2491FC01E656FF4F8A
:1008400084918823C1F090E0880F991FFC01E05744
:10085000FF4FC591D491FC01EA57FF4FA591B49188
:100860009FB7F8948881E22FE0958E2388838C913E
:10087000E823EC939FBFDF91CF910895CF93DF934F
:1008800010926202109261021092600210925F0256
:1008900010925E0281E080935D0210925C0282E120
:1008A0000E947F0383E10E947F038091B9008E7FC5
:1008B0008093B9008091B9008D7F8093B90088E45E
:1008C0008093B80085E48093BC0088EE90E090931C
:1008D0005B0280935A0289EE90E0909359028093D4
:1008E00058021092740280917902823018F098E0D8
:1008F000909374028093770262E370E080E090E06E
:100900000E94CA0360917A028FE692E00E948E01F3
:1009100068EE73E080E090E00E94CA0360E38FE637
:1009200092E00E94F201CBE4D6E4CE010197F1F708
:1009300060E38FE692E00E94F2012197F1F760E315
:100940008FE692E00E94F20183E592E00197F1F7D1
:1009500060E28FE692E00E94F201609174026062B0
:1009600040E08FE692E00E940B0284E080937502E3
:1009700040E06CE08FE692E00E940B0240E061E014
:100980008FE692E00E940B02CBE3DFE1CE010197FC
:10099000F1F782E08093760240E066E08FE692E035
:1009A0000E940B0240E062E08FE692E00E940B02A0
:1009B0002197F1F7DF91CF9108958F929F92AF9297
:1009C000BF92CF92DF92EF92FF92CF93DF93CDB79A
:1009D000DEB7A1970FB6F894DEBF0FBECDBF6C0196
:1009E000990FEE08FF08F7FE2AC041E06DE28FE69E
:1009F00092E00E940B0222273327A9012C193D09FE
:100A00004E095F0919A2CE0181967C019AE0892ED8
:100A1000912CA12CB12CCA01B901A50194010E940D
:100A2000170E605DF70162937F01211531054105C5
:100A3000510589F7CF010E94040401961DC0A7014A
:100A4000960119A2CE0181967C018AE0882E912C14
:100A5000A12CB12CCA01B901A50194010E94170E65
:100A6000605DF70162937F01211531054105510554
:100A700089F7CF010E940404A1960FB6F894DEBF57
:100A80000FBECDBFDF91CF91FF90EF90DF90CF9061
:100A9000BF90AF909F908F900895CF93DF93CDB785
:100AA000DEB728970FB6F894DEBF0FBECDBF98E033
:100AB000E8E0F1E0DE01119601900D929A95E1F7E0
:100AC00090917702961710F46FEF690FFE0131963F
:100AD000E60FF11DE60FF11D6081680F606840E0D0
:100AE0008FE692E028960FB6F894DEBF0FBECDBF1A
:100AF000DF91CF910C940B020C940404CF93DF93FD
:100B0000282F30E0F901EE58FF4F8491F901E255AA
:100B1000FF4FD491F901E656FF4FC491CC2391F0D9
:100B200081110E945603EC2FF0E0EE0FFF1FE859F1
:100B3000FF4FA591B491EC91ED2381E090E021F479
:100B400080E002C080E090E0DF91CF9108952FB760
:100B5000F89460917C0270917D0280917E02909168
:100B60007F022FBF08951F920F920FB60F9211248C
:100B70002F933F938F939F93AF93BF9380917C026A
:100B800090917D02A0917E02B0917F0230917B0214
:100B900023E0230F2D3720F40196A11DB11D05C0C0
:100BA00026E8230F0296A11DB11D20937B0280939E
:100BB0007C0290937D02A0937E02B0937F0280918D
:100BC000800290918102A0918202B09183020196ED
:100BD000A11DB11D8093800290938102A093820297
:100BE000B0938302BF91AF919F918F913F912F91CD
:100BF0000F900FBE0F901F901895789484B5826067
:100C000084BD84B5816084BD85B5826085BD85B5B0
:100C1000816085BD80916E00816080936E0010922E
:100C200081008091810082608093810080918100A9
:100C3000816080938100809180008160809380003A
:100C40008091B10084608093B1008091B000816098
:100C50008093B00080917A00846080937A008091C4
:100C60007A00826080937A0080917A00816080931C
:100C70007A0080917A00806880937A001092C10097
:100C80000E943E048EE00E9416048FE00E9416042B
:100C900080E10E94160481E10E94160484B5887FD9
:100CA000816084BD85B5887F816085BD809180002D
:100CB000807E81608093800080918100807E816051
:100CC000809381008091B000807E81608093B0002D
:100CD0008091B100807E81608093B10080E0482ED9
:100CE00080E0582E98E0392E66246394712CCAE077
:100CF000D0E088248A94912C0E943E0430927A029B
:100D000060E08FE692E00E948E018EE00E947E05F8
:100D10005C0181E090E0A114B10411F080E090E06A
:100D200090930701809306018FE00E947E056C017D
:100D300081E090E0C114D10411F080E090E0909344
:100D400005018093040180E10E947E057C0181E021
:100D500090E0E114F10411F080E090E09093030141
:100D60008093020181E10E947E058C0181E090E088
:100D70000115110511F080E090E09093010180933E
:100D80000001AB2841F50E94A70520915402309143
:100D900055024091560250915702DC01CB01821B53
:100DA000930BA40BB50B81319742A105B10598F0C7
:100DB0000E94A705609354027093550280935602D7
:100DC0009093570280915202909153020196909312
:100DD000530280935202CD2809F04BC50E94A7050B
:100DE0002091540230915502409156025091570281
:100DF000DC01CB01821B930BA40BB50B8131974215
:100E0000A105B10570F00E94A7056093540270938C
:100E1000550280935602909357027092510260924D
:100E20005002EF2821F50E94A705C0905402D090EF
:100E30005502E0905602F0905702DC01CB018C196C
:100E40009D09AE09BF0981319742A105B10578F02E
:100E50000E94A70560935402709355028093560236
:100E60009093570270924F0260924E0204C010920B
:100E70004F0210924E02012B21F50E94A70500910E
:100E80005402109155022091560230915702DC0114
:100E9000CB01801B910BA20BB30B81319742A105B3
:100EA000B10578F00E94A705609354027093550233
:100EB000809356029093570270924D0260924C02BA
:100EC00004C010924D0210924C02809152029091F7
:100ED00053020B9724F01092530210925202809109
:100EE0005202909153020197D1F460E080E00E9499
:100EF0004D058EE291E00E947C0561E080E00E9459
:100F00004D0587E391E00E947C0561E086E00E9448
:100F10004D0580914A0290914B020E94DD04809120
:100F20005202909153020297D1F460E080E00E9457
:100F30004D058EE291E00E947C0561E080E00E9418
:100F40004D058EE391E00E947C0561E085E00E9402
:100F50004D0580914802909149020E94DD048091E4
:100F60005202909153020397D1F460E080E00E9416
:100F70004D0584E491E00E947C0561E080E00E94E0
:100F80004D0587E391E00E947C0561E086E00E94C8
:100F90004D0580914602909147020E94DD048091A8
:100FA0005202909153020497D1F460E080E00E94D5
:100FB0004D0584E491E00E947C0561E080E00E94A0
:100FC0004D058DE491E00E947C0561E085E00E9482
:100FD0004D0580914402909145020E94DD0480916C
:100FE0005202909153020597D1F460E080E00E9494
:100FF0004D0583E591E00E947C0561E080E00E9460
:101000004D0587E391E00E947C0561E086E00E9447
:101010004D0580914202909143020E94DD0480912F
:101020005202909153020697D1F460E080E00E9452
:101030004D0583E591E00E947C0561E080E00E941F
:101040004D058CE591E00E947C0561E085E00E9401
:101050004D0580914002909141020E94DD048091F3
:101060005202909153020797D1F460E080E00E9411
:101070004D0582E691E00E947C0561E080E00E94DF
:101080004D0587E391E00E947C0561E086E00E94C7
:101090004D0580913E0290913F020E94DD048091B7
:1010A0005202909153020897D1F460E080E00E94D0
:1010B0004D0582E691E00E947C0561E080E00E949F
:1010C0004D058BE691E00E947C0561E085E00E9481
:1010D0004D0580913C0290913D020E94DD0480917B
:1010E0005202909153020997D1F460E080E00E948F
:1010F0004D0581E791E00E947C0561E080E00E945F
:101100004D0587E391E00E947C0561E086E00E9446
:101110004D0580913A0290913B020E94DD0480913E
:101120005202909153020A97D1F460E080E00E944D
:101130004D0581E791E00E947C0561E080E00E941E
:101140004D058AE791E00E947C0561E085E00E9400
:101150004D0580913802909139020E94DD04809102
:10116000520290915302892B09F06AC060E080E03E
:101170000E944D0580E891E00E947C0560E083E0DC
:101180000E944D0585E391E00E947C0560E086E0C9
:101190000E944D058BE491E00E947C0560E089E0AF
:1011A0000E944D058AE591E00E947C0560E08CE09C
:1011B0000E944D0589E691E00E947C0560E08FE089
:1011C0000E944D0588E791E00E947C0561E080E087
:1011D0000E944D0583E891E00E947C0561E083E078
:1011E0000E944D0580914A0290914B020E94DD04BD
:1011F00061E086E00E944D05809146029091470291
:101200000E94DD0461E089E00E944D058091420268
:10121000909143020E94DD0461E08CE00E944D0544
:1012200080913E0290913F020E94DD0461E08FE0D8
:101230000E944D0580913A0290913B020E94DD048C
:10124000209150023091510221303105F1F440914A
:1012500052025091530280914802909149024130CC
:10126000510559F440914A0250914B02840F951F49
:1012700090934B0280934A0208C04230510529F4F2
:101280000196909349028093480280914802909180
:1012900049020B9724F0D0934902C0934802409131
:1012A0004A0250914B028091480290914902840F6A
:1012B000951F8F3F910529F024F090924B02809268
:1012C0004A0221303105F1F440915202509153020B
:1012D00080914402909145024330510559F4409168
:1012E000460250914702840F951F909347028093C6
:1012F000460208C04430510529F4019690934502F6
:101300008093440200914402109145020B30110574
:1013100024F0D0934902C0934802809146029091F4
:101320004702800F911F8F3F910529F024F0909282
:1013300047028092460221303105F1F44091520279
:1013400050915302809140029091410245305105E5
:1013500059F44091420250914302840F951F90939B
:1013600043028093420208C04630510529F4019699
:1013700090934102809340028091400290914102FB
:101380000B9724F0D0934102C0934002A0904002FA
:10139000B090410280914202909143028A0D9B1DC0
:1013A0008F3F910529F024F09092430280924202EF
:1013B00021303105F1F44091520250915302809155
:1013C0003C0290913D024730510559F440913E0254
:1013D00050913F02840F951F90933F0280933E02ED
:1013E00008C04830510529F4019690933D0280933E
:1013F0003C0280913C0290913D020B9724F0D093E7
:101400003D02C0933C02E0903C02F0903D0280918E
:101410003E0290913F028E0D9F1D8F3F910529F056
:1014200024F090923F0280923E0221303105F1F487
:1014300020915202309153028091380290913902EA
:101440002930310559F420913A0230913B02820F44
:10145000931F90933B0280933A0208C02A303105D3
:1014600029F40196909339028093380280913802D2
:10147000909139020B9724F0D0933902C09338022F
:10148000C0903802D090390280913A0290913B028C
:101490008C0D9D1D8F3F910529F024F090923B0209
:1014A00080923A0280914C0290914D02019709F08E
:1014B000F6C0109253021092520260914A0270914B
:1014C0004B02072E000C880B990B0E941E0D23E384
:1014D00033E343E250E40E94AA0D0E94ED0C262E55
:1014E0006091460270914702072E000C880B990B01
:1014F0000E941E0D23E333E343E250E40E94AA0D51
:101500000E94ED0C60933702609142027091430299
:10151000072E000C880B990B0E941E0D23E333E36A
:1015200043E250E40E94AA0D0E94ED0C6093360243
:1015300060913E0270913F02072E000C880B990BC0
:101540000E941E0D23E333E343E250E40E94AA0D00
:101550000E94ED0C6093350260913A0270913B025B
:10156000072E000C880B990B0E941E0D23E333E31A
:1015700043E250E40E94AA0D0E94ED0C60933402F5
:101580006091480270914902072E000C880B990B5C
:101590000E941E0D23E333E343E250E40E94AA0DB0
:1015A0000E94ED0C60933302B801110F880B990B68
:1015B0000E941E0D23E333E343E250E40E94AA0D90
:1015C0000E94ED0C60933202B501BB0C880B990BA5
:1015D0000E941E0D23E333E343E250E40E94AA0D70
:1015E0000E94ED0C60933102B701FF0C880B990B40
:1015F0000E941E0D23E333E343E250E40E94AA0D50
:101600000E94ED0C60933002B601DD0C880B990B43
:101610000E941E0D23E333E343E250E40E94AA0D2F
:101620000E94ED0C60932F02622D80E090E00E94FA
:1016300078016091370281E090E00E94780160912A
:10164000360282E090E00E9478016091350283E0EA
:1016500090E00E9478016091340284E090E00E9462
:1016600078016091330285E090E00E9478016091FA
:10167000320286E090E00E9478016091310287E0BA
:1016800090E00E9478016091300288E090E00E9432
:10169000780160912F0289E090E00E9478018091AA
:1016A0004E0290914F02019709F0DCC085E090E076
:1016B0000E948C01682F70E080E090E00E941E0D77
:1016C00023E333E343E250E40E94740C0E94E60CEF
:1016D000709349026093480286E090E00E948C017A
:1016E000682F70E080E090E00E941E0D23E333E35A
:1016F00043E250E40E94740C0E94E60C7093450291
:101700006093440287E090E00E948C01682F70E0B3
:1017100080E090E00E941E0D23E333E343E250E4B7
:101720000E94740C0E94E60C709341026093400288
:1017300088E090E00E948C01682F70E080E090E0EB
:101740000E941E0D23E333E343E250E40E94740C35
:101750000E94E60C70933D0260933C0289E090E0A9
:101760000E948C01682F70E080E090E00E941E0DC6
:1017700023E333E343E250E40E94740C0E94E60C3E
:10178000709339026093380280E090E00E948C01EF
:10179000682F70E080E090E00E941E0D23E333E3A9
:1017A00043E250E40E94740C0E94E60C70934B02DA
:1017B00060934A0281E090E00E948C01682F70E003
:1017C00080E090E00E941E0D23E333E343E250E407
:1017D0000E94740C0E94E60C7093470260934602CC
:1017E00082E090E00E948C01682F70E080E090E041
:1017F0000E941E0D23E333E343E250E40E94740C85
:101800000E94E60C709343026093420283E090E0F2
:101810000E948C01682F70E080E090E00E941E0D15
:1018200023E333E343E250E40E94740C0E94E60C8D
:1018300070933F0260933E0284E090E00E948C012E
:10184000682F70E080E090E00E941E0D23E333E3F8
:1018500043E250E40E94740C0E94E60C70933B0239
:1018600060933A024114510409F446CA0E940000F0
:1018700043CA1092510210925002D3CAE3E6F2E03A
:101880001382128288EE93E0A0E0B0E08483958317
:10189000A683B78384E191E091838083EFE6F2E051
:1018A0001382128286E291E09183808387E28483AF
:1018B00080E1818782E0828713860895F999FECFBF
:1018C00092BD81BDF89A992780B50895262FF99980
:1018D000FECF1FBA92BD81BD20BD0FB6F894FA9A13
:1018E000F99A0FBE019608950E94880C0C94700D11
:1018F0000E94690D58F00E94620D40F029F45F3F8C
:1019000029F00C94590D51110C94A40D0C945F0DF9
:101910000E94810D68F39923B1F3552391F3951B30
:10192000550BBB27AA2762177307840738F09F5F00
:101930005F4F220F331F441FAA1FA9F335D00E2E6D
:101940003AF0E0E832D091505040E695001CCAF7DA
:101950002BD0FE2F29D0660F771F881FBB1F26179D
:1019600037074807AB07B0E809F0BB0B802DBF0174
:10197000FF2793585F4F3AF09E3F510578F00C9443
:10198000590D0C94A40D5F3FE4F3983ED4F3869573
:1019900077956795B795F7959F5FC9F7880F911D64
:1019A0009695879597F90895E1E0660F771F881F50
:1019B000BB1F621773078407BA0720F0621B730B03
:1019C000840BBA0BEE1F88F7E09508950E94ED0C8A
:1019D0006894B1110C94A40D08950E94890D88F0AB
:1019E0009F5798F0B92F9927B751B0F0E1F0660FE3
:1019F000771F881F991F1AF0BA95C9F714C0B13024
:101A000091F00E94A30DB1E008950C94A30D672FEF
:101A1000782F8827B85F39F0B93FCCF38695779552
:101A20006795B395D9F73EF490958095709561953B
:101A30007F4F8F4F9F4F0895E89409C097FB3EF466
:101A400090958095709561957F4F8F4F9F4F99230B
:101A5000A9F0F92F96E9BB279395F6958795779589
:101A60006795B795F111F8CFFAF4BB0F11F460FF49
:101A70001BC06F5F7F4F8F4F9F4F16C0882311F0A1
:101A800096E911C0772321F09EE8872F762F05C0B5
:101A9000662371F096E8862F70E060E02AF09A9550
:101AA000660F771F881FDAF7880F9695879597F945
:101AB000089597F99F6780E870E060E008959FEFD0
:101AC00080EC089500240A941616170618060906D5
:101AD000089500240A9412161306140605060895A4
:101AE000092E0394000C11F4882352F0BB0F40F42C
:101AF000BF2B11F460FF04C06F5F7F4F8F4F9F4F6C
:101B0000089557FD9058440F551F59F05F3F71F0ED
:101B10004795880F97FB991F61F09F3F79F0879554
:101B20000895121613061406551FF2CF4695F1DFDD
:101B300008C0161617061806991FF1CF869571056D
:101B4000610508940895E894BB2766277727CB01A1
:101B500097F908950E94BD0D0C94700D0E94620DBE
:101B600038F00E94690D20F0952311F00C94590D66
:101B70000C945F0D11240C94A40D0E94810D70F340
:101B8000959FC1F3950F50E0551F629FF001729F22
:101B9000BB27F00DB11D639FAA27F00DB11DAA1F31
:101BA000649F6627B00DA11D661F829F2227B00D7E
:101BB000A11D621F739FB00DA11D621F839FA00D09
:101BC000611D221F749F3327A00D611D231F849F59
:101BD000600D211D822F762F6A2F11249F575040B0
:101BE0009AF0F1F088234AF0EE0FFF1FBB1F661F2B
:101BF000771F881F91505040A9F79E3F510580F0F4
:101C00000C94590D0C94A40D5F3FE4F3983ED4F36B
:101C1000869577956795B795F795E7959F5FC1F797
:101C2000FE2B880F911D9695879597F90895A1E24F
:101C30001A2EAA1BBB1BFD010DC0AA1FBB1FEE1F46
:101C4000FF1FA217B307E407F50720F0A21BB30B91
:101C5000E40BF50B661F771F881F991F1A9469F70D
:101C600060957095809590959B01AC01BD01CF0169
:101C70000895EE0FFF1F0590F491E02D099481E087
:0C1C800090E0F8940C94440EF894FFCF10
:101C8C00110010000F000E00000040001400540062
:101C9C0000000000430116017301EA000E01FA0076
:101CAC00EB000000000022028C00730172014772ED
:101CBC006F75702023310056616C75652000645679
:101CCC005F31200047726F75702023320064565FBD
:101CDC0032200047726F75702023330064565F33D7
:101CEC00200047726F75702023340064565F3420D7
:101CFC000047726F75702023350064565F352000E5
:061D0C00473A00563A00C0
:00000001FF
