:100000000C9462000C948A000C948A000C948A0070
:100010000C948A000C948A000C948A000C948A0038
:100020000C948A000C948A000C948A000C948A0028
:100030000C948A000C948A000C948A000C948A0018
:100040000C94B3050C948A000C948A000C948A00DA
:100050000C948A000C948A000C948A000C948A00F8
:100060000C9428020C948A00000000002300260053
:10007000290000000008000201000003040700003E
:1000800000000000000000000000250028002B00F8
:1000900000000000240027002A00040404040404D3
:1000A0000404020202020202030303030303010227
:1000B00004081020408001020408102001020408F6
:1000C0001020370C11241FBECFEFD4E0DEBFCDBF10
:1000D00011E0A0E0B1E0EEE7FCE102C005900D9276
:1000E000A638B107D9F722E0A6E8B1E001C01D9219
:1000F000A638B207E1F710E0C2E6D0E004C02197CD
:10010000FE010E94320EC136D107C9F70E94FD05DB
:100110000C943D0E0C940000CF92DF92EF92FF9270
:100120000F931F93CF93DF936C017A018B01C0E093
:10013000D0E0CE15DF0581F0D8016D918D01D6019B
:10014000ED91FC910190F081E02DC6010995892B7C
:1001500011F02196EECF7E01C701DF91CF911F9163
:100160000F91FF90EF90DF90CF90089585ED8093F1
:10017000BC008091BC0084FDFCCF10926002089509
:100180004091C601262F30E0240F311D2132310568
:10019000DCF4209160022430C9F4FC0180E090E09E
:1001A000861758F43091C6012191DC01AA55BE4F43
:1001B000A30FB11D2C930196F3CF8091C601680F58
:1001C0006093C60180E0089581E0089582E008957B
:1001D000089508950895E091640280916302E817FC
:1001E00030F4F0E0EA57FE4F808190E008958FEF01
:1001F0009FEF08959091640280916302981750F4E4
:10020000E92FF0E0EA57FE4F208130E09F5F9093A6
:10021000640202C02FEF3FEFC9010895809163028D
:1002200090E020916402821B91090895CF92DF92A1
:10023000EF92FF920F931F93CF93DF937C01CB013B
:100240008A0120910D02222389F0EB016B01C40E7B
:10025000D51ECC15DD0569F06991D701ED91FC91B2
:100260000190F081E02DC7010995F3CF642F0E9422
:10027000C000C801DF91CF911F910F91FF90EF90C7
:10028000DF90CF900895CF93DF931F92CDB7DEB765
:10029000698320910D022223D1F020916102203246
:1002A00040F021E030E0FC013383228380E090E0E5
:1002B00015C080916202E82FF0E0E25FFD4F998166
:1002C00090838F5F809362028093610205C061E03A
:1002D000CE0101960E94C00081E090E00F90DF9176
:1002E000CF910895089580E090E008950E94380E1F
:1002F0001F93CF93DF93EC01162F0E94570C181712
:1003000039F0612FCE01DF91CF911F910C945F0CDA
:10031000DF91CF911F9108950C94570CCF93FC015E
:10032000C48121E020930D02C0932E02109262023C
:10033000109261028385682B85E692E00E9443015A
:1003400090916102913208F045C080916002811164
:10035000FCCF82E08093600281E080935F028FEFA8
:1003600080930C0210920B0290930A02AEE0B2E06E
:10037000EAEEF1E080E0981721F02D9121938F5F54
:10038000FACF1092E9018091E901CC0FC82BC093FC
:10039000E90180915E02813061F410925E028091E9
:1003A000E9018093BB008091BC0083FDF8CF85EC10
:1003B00001C085EE8093BC00809160028230E1F341
:1003C00080910C028F3F31F080910C02803211F04D
:1003D00080910C02109262021092610210920D0242
:1003E000CF9108950F931F93CF938C01C62F0E9436
:1003F0008E016C2F6460C8010E948E016C2F6B7F90
:10040000C8010E948E0183EC90E00197F1F7CF9133
:100410001F910F9108950F931F93CF93DF938C013A
:10042000C62FD42F607F642B0E94F20180E1C89F09
:10043000B00111246D2BC801DF91CF911F910F9155
:100440000C94F20141E00E940B0281E090E00895DB
:100450001F920F920FB60F9211242F933F934F9339
:100460005F936F937F938F939F93AF93BF93EF931C
:10047000FF938091B900887F803609F49CC068F5AD
:10048000883209F45BC090F4803109F454C038F428
:10049000882309F4F6C0883009F44DC0F6C08831CD
:1004A00009F44CC0803209F45DC0EFC0803409F417
:1004B00068C048F4803309F455C0883309F0E5C0BA
:1004C00080930C02D8C0803509F44FC0883509F4F8
:1004D0005DC0883409F0D9C0D6C0883909F4C7C0D6
:1004E000A8F4883709F467C038F4883609F463C083
:1004F000803709F460C0C9C0883809F4B8C08039B1
:1005000009F45FC0803809F0C0C05BC0803B09F4CB
:1005100086C038F4803A09F466C0883A09F47FC08E
:10052000B4C0803C09F4A7C0883C09F4A4C0883B4F
:1005300009F48AC0AAC08091E90110C090910B0211
:1005400080910A02981770F5E0910B0281E08E0FFE
:1005500080930B02F0E0E651FE4F80818093BB0058
:1005600085EC86C080930C028EC0E0910B0281E086
:100570008E0F80930B028091BB00F0E0E651FE4F9E
:10058000808390910B0280910A026EC0E0910B0271
:1005900081E08E0F80930B028091BB00F0E0E6516A
:1005A000FE4F808380915F0281116DC081E0809356
:1005B0005E0284EA61C083E0809360021092E801E9
:1005C000CFCF8091E801803208F051C0E091E8017E
:1005D00081E08E0F8093E8018091BB00F0E0E8534A
:1005E000FE4F8083BDCF85EC8093BC0010926002EB
:1005F0008091E801803230F4E091E801F0E0E853C6
:10060000FE4F10826091E80170E0E0915A02F09193
:100610005B0288EC91E009951092E80136C084E015
:10062000809360021092C7011092C601E0915C02B3
:10063000F0915D0209958091C601811105C081E0AC
:100640008093C6011092A601E091C70181E08E0F50
:100650008093C701F0E0EA55FE4F80818093BB0094
:100660009091C7018091C601981708F479CF85E869
:100670008093BC000AC085EC8093BC00109260029D
:1006800004C010920C020E94B600FF91EF91BF913E
:10069000AF919F918F917F916F915F914F913F911A
:1006A0002F910F900FBE0F901F901895833081F0FF
:1006B00028F4813099F08230A1F008958730A9F0B4
:1006C0008830B9F08430D1F4809180008F7D03C0F0
:1006D000809180008F7780938000089584B58F7714
:1006E00002C084B58F7D84BD08958091B0008F775E
:1006F00003C08091B0008F7D8093B0000895CF93A8
:10070000DF93282F30E0F901EE58FF4F8491F90173
:10071000E255FF4FD491F901E656FF4FC491CC2327
:1007200089F081110E945603EC2FF0E0EE0FFF1FBD
:10073000EA57FF4FA591B4918FB7F894EC91ED2B48
:10074000EC938FBFDF91CF9108953FB7F8948091DC
:10075000820290918302A0918402B091850226B515
:10076000A89B05C02F3F19F00196A11DB11D3FBFE9
:10077000BA2FA92F982F8827820F911DA11DB11D77
:10078000BC01CD0142E0660F771F881F991F4A9573
:10079000D1F708958F929F92AF92BF92CF92DF923E
:1007A000EF92FF926B017C010E94A5034B015C015B
:1007B000C114D104E104F104F1F00E94A503DC01AD
:1007C000CB0188199909AA09BB09883E9340A10564
:1007D000B10570F321E0C21AD108E108F10888EEF2
:1007E000880E83E0981EA11CB11CC114D104E10441
:1007F000F10419F7DDCFFF90EF90DF90CF90BF901D
:10080000AF909F908F900895009769F0FC01019040
:100810000020E9F73197AF01481B590BBC0181E774
:1008200092E00C948C0080E090E00895CF93DF93E9
:1008300090E0FC01E255FF4F2491FC01E656FF4F8A
:1008400084918823C1F090E0880F991FFC01E05744
:10085000FF4FC591D491FC01EA57FF4FA591B49188
:100860009FB7F8948881E22FE0958E2388838C913E
:10087000E823EC939FBFDF91CF910895CF93DF934F
:10088000109264021092630210926202109261024E
:100890001092600281E080935F0210925E0282E11A
:1008A0000E947F0383E10E947F038091B9008E7FC5
:1008B0008093B9008091B9008D7F8093B90088E45E
:1008C0008093B80085E48093BC0088EE90E090931C
:1008D0005D0280935C0289EE90E090935B028093CE
:1008E0005A021092760280917B02823018F098E0D2
:1008F000909376028093790262E370E080E090E06A
:100900000E94CA0360917C0281E792E00E948E01FE
:1009100068EE73E080E090E00E94CA0360E381E744
:1009200092E00E94F201CBE4D6E4CE010197F1F708
:1009300060E381E792E00E94F2012197F1F760E322
:1009400081E792E00E94F20183E592E00197F1F7DE
:1009500060E281E792E00E94F201609176026062BB
:1009600040E081E792E00E940B0284E080937702EE
:1009700040E06CE081E792E00E940B0240E061E021
:1009800081E792E00E940B02CBE3DFE1CE01019709
:10099000F1F782E08093780240E066E081E792E040
:1009A0000E940B0240E062E081E792E00E940B02AD
:1009B0002197F1F7DF91CF9108958F929F92AF9297
:1009C000BF92CF92DF92EF92FF92CF93DF93CDB79A
:1009D000DEB7A1970FB6F894DEBF0FBECDBF6C0196
:1009E000990FEE08FF08F7FE2AC041E06DE281E7AB
:1009F00092E00E940B0222273327A9012C193D09FE
:100A00004E095F0919A2CE0181967C019AE0892ED8
:100A1000912CA12CB12CCA01B901A50194010E940D
:100A2000100E605DF70162937F01211531054105CC
:100A3000510589F7CF010E94040401961DC0A7014A
:100A4000960119A2CE0181967C018AE0882E912C14
:100A5000A12CB12CCA01B901A50194010E94100E6C
:100A6000605DF70162937F01211531054105510554
:100A700089F7CF010E940404A1960FB6F894DEBF57
:100A80000FBECDBFDF91CF91FF90EF90DF90CF9061
:100A9000BF90AF909F908F900895CF93DF93CDB785
:100AA000DEB728970FB6F894DEBF0FBECDBF98E033
:100AB000E8E0F1E0DE01119601900D929A95E1F7E0
:100AC00090917902961710F46FEF690FFE0131963D
:100AD000E60FF11DE60FF11D6081680F606840E0D0
:100AE00081E792E028960FB6F894DEBF0FBECDBF27
:100AF000DF91CF910C940B020C940404CF93DF93FD
:100B0000282F30E0F901EE58FF4F8491F901E255AA
:100B1000FF4FD491F901E656FF4FC491CC2391F0D9
:100B200081110E945603EC2FF0E0EE0FFF1FE859F1
:100B3000FF4FA591B491EC91ED2381E090E021F479
:100B400080E002C080E090E0DF91CF9108952FB760
:100B5000F89460917E0270917F0280918002909162
:100B600081022FBF08951F920F920FB60F9211248A
:100B70002F933F938F939F93AF93BF9380917E0268
:100B800090917F02A0918002B091810230917D020C
:100B900023E0230F2D3720F40196A11DB11D05C0C0
:100BA00026E8230F0296A11DB11D20937D0280939C
:100BB0007E0290937F02A0938002B0938102809185
:100BC000820290918302A0918402B09185020196E5
:100BD000A11DB11D8093820290938302A093840291
:100BE000B0938502BF91AF919F918F913F912F91CB
:100BF0000F900FBE0F901F901895789484B5826067
:100C000084BD84B5816084BD85B5826085BD85B5B0
:100C1000816085BD80916E00816080936E0010922E
:100C200081008091810082608093810080918100A9
:100C3000816080938100809180008160809380003A
:100C40008091B10084608093B1008091B000816098
:100C50008093B00080917A00846080937A008091C4
:100C60007A00826080937A0080917A00816080931C
:100C70007A0080917A00806880937A001092C10097
:100C80000E943E048EE00E9416048FE00E9416042B
:100C900080E10E94160481E10E94160484B5887FD9
:100CA000816084BD85B5887F816085BD809180002D
:100CB000807E81608093800080918100807E816051
:100CC000809381008091B000807E81608093B0002D
:100CD0008091B100807E81608093B10080E0482ED9
:100CE00080E0582E98E0392E66246394712CCAE077
:100CF000D0E088248A94912C0E943E0430927C0299
:100D000060E081E792E00E948E018EE00E947E0505
:100D10005C0181E090E0A114B10411F080E090E06A
:100D200090930701809306018FE00E947E056C017D
:100D300081E090E0C114D10411F080E090E0909344
:100D400005018093040180E10E947E057C0181E021
:100D500090E0E114F10411F080E090E09093030141
:100D60008093020181E10E947E058C0181E090E088
:100D70000115110511F080E090E09093010180933E
:100D80000001AB2841F50E94A70520915602309141
:100D900057024091580250915902DC01CB01821B4D
:100DA000930BA40BB50B81319742A105B10598F0C7
:100DB0000E94A705609356027093570280935802D1
:100DC000909359028091540290915502019690930C
:100DD000550280935402CD2809F044C50E94A7050E
:100DE0002091560230915702409158025091590279
:100DF000DC01CB01821B930BA40BB50B8131974215
:100E0000A105B10570F00E94A7056093560270938A
:100E10005702809358029093590270925302609245
:100E20005202EF2821F50E94A705C0905602D090EB
:100E30005702E0905802F0905902DC01CB018C1966
:100E40009D09AE09BF0981319742A105B10578F02E
:100E50000E94A70560935602709357028093580230
:100E600090935902709251026092500204C0109205
:100E7000510210925002012B21F50E94A70500910A
:100E80005602109157022091580230915902DC010C
:100E9000CB01801B910BA20BB30B81319742A105B3
:100EA000B10578F00E94A70560935602709357022F
:100EB000809358029093590270924F0260924E02B2
:100EC00004C010924F0210924E02809154029091F1
:100ED00055020B9724F01092550210925402809103
:100EE0005402909155020197D1F460E080E00E9495
:100EF0004D058EE291E00E947C0561E080E00E9459
:100F00004D0587E391E00E947C0561E086E00E9448
:100F10004D0580914C0290914D020E94DD0480911C
:100F20005402909155020297D1F460E080E00E9453
:100F30004D058EE291E00E947C0561E080E00E9418
:100F40004D058EE391E00E947C0561E085E00E9402
:100F50004D0580914A0290914B020E94DD048091E0
:100F60005402909155020397C1F460E080E00E9422
:100F70004D0584E491E00E947C0561E080E00E94E0
:100F80004D0587E391E00E947C0561E086E00E94C8
:100F90004D0580E090E00E94DD0480915402909124
:100FA00055020497D1F460E080E00E944D0584E48E
:100FB00091E00E947C0561E080E00E944D058DE497
:100FC00091E00E947C0561E085E00E944D058091E2
:100FD0004802909149020E94DD0480915402909150
:100FE00055020597C1F460E080E00E944D0583E55D
:100FF00091E00E947C0561E080E00E944D0587E35E
:1010000091E00E947C0561E086E00E944D0580E051
:1010100090E00E94DD048091540290915502069761
:10102000D1F460E080E00E944D0583E591E00E94EC
:101030007C0561E080E00E944D058CE591E00E9416
:101040007C0561E085E00E944D058091460290910B
:1010500047020E94DD048091540290915502079747
:10106000C1F460E080E00E944D0582E691E00E94BC
:101070007C0561E080E00E944D0587E391E00E94DD
:101080007C0561E086E00E944D0580E090E00E94D2
:10109000DD0480915402909155020897D1F460E0EC
:1010A00080E00E944D0582E691E00E947C0561E0AF
:1010B00080E00E944D058BE691E00E947C0561E096
:1010C00085E00E944D0580914402909145020E9466
:1010D000DD0480915402909155020997C1F460E0BB
:1010E00080E00E944D0581E791E00E947C0561E06F
:1010F00080E00E944D0587E391E00E947C0561E05D
:1011000086E00E944D0580E090E00E94DD04809121
:101110005402909155020A97D1F460E080E00E9459
:101120004D0581E791E00E947C0561E080E00E942E
:101130004D058AE791E00E947C0561E085E00E9410
:101140004D0580914202909143020E94DD048091FE
:10115000540290915502892B09F062C060E080E052
:101160000E944D0580E891E00E947C0560E083E0EC
:101170000E944D0585E391E00E947C0560E086E0D9
:101180000E944D058BE491E00E947C0560E089E0BF
:101190000E944D058AE591E00E947C0560E08CE0AC
:1011A0000E944D0589E691E00E947C0560E08FE099
:1011B0000E944D0588E791E00E947C0561E080E097
:1011C0000E944D0583E891E00E947C0561E083E088
:1011D0000E944D0580914C0290914D020E94DD04C9
:1011E00061E086E00E944D0580E090E00E94DD0411
:1011F00061E089E00E944D0580E090E00E94DD04FE
:1012000061E08CE00E944D0580E090E00E94DD04EA
:1012100061E08FE00E944D0580E090E00E94DD04D7
:10122000209152023091530260914002709141022C
:1012300021303105C9F480915402909155028130DA
:10124000910539F4CB01019690934D0280934C02A5
:101250000BC0029749F480914A0290914B0201968B
:1012600090934B0280934A0280914A0290914B02E4
:101270000B9724F0D0934B02C0934A0240914C024A
:1012800050914D026417750724F05093410240932A
:10129000400280914002909141024817590754F052
:1012A00040914A0250914B02840F951F9093410246
:1012B0008093400221303105F1F440915402509165
:1012C000550280914802909149024330510559F4EA
:1012D00040913E0250913F02840F951F90933F0230
:1012E00080933E0208C04430510529F40196909342
:1012F00049028093480200914802109149020B3044
:10130000110524F0D0934B02C0934A0280913E0213
:1013100090913F02800F911F8F3F910529F024F09B
:1013200090923F0280923E0221303105F1F44091CB
:1013300054025091550280914602909147024530E7
:10134000510559F440913C0250913D02840F951F84
:1013500090933D0280933C0208C04630510529F429
:1013600001969093470280934602809146029091A5
:1013700047020B9724F0D0934702C0934602A090F7
:101380004602B090470280913C0290913D028A0D46
:101390009B1D8F3F910529F024F090923D02809291
:1013A0003C0221303105F1F4409154025091550234
:1013B00080914402909145024730510559F4409183
:1013C0003A0250913B02840F951F90933B02809309
:1013D0003A0208C04830510529F40196909345021D
:1013E0008093440280914402909145020B9724F02F
:1013F000D0934502C0934402E0904402F09045022D
:1014000080913A0290913B028E0D9F1D8F3F910576
:1014100029F024F090923B0280923A02213031056B
:10142000F1F4209154023091550280914202909142
:1014300043022930310559F42091380230913902A4
:10144000820F931F909339028093380208C02A308C
:10145000310529F4019690934302809342028091D2
:101460004202909143020B9724F0D0934302C09321
:101470004202C0904202D090430280913802909183
:1014800039028C0D9D1D8F3F910529F024F090921B
:1014900039028092380280914E0290914F0201975A
:1014A00009F0F6C010925502109254026091400269
:1014B00070914102072E000C880B990B0E94170DAA
:1014C00023E333E343E250E40E94A30D0E94E60CC1
:1014D000262E60913E0270913F02072E000C880B71
:1014E000990B0E94170D23E333E343E250E40E947B
:1014F000A30D0E94E60C6093370260913C0270914C
:101500003D02072E000C880B990B0E94170D23E358
:1015100033E343E250E40E94A30D0E94E60C609383
:10152000360260913A0270913B02072E000C880B44
:10153000990B0E94170D23E333E343E250E40E942A
:10154000A30D0E94E60C6093350260913802709101
:101550003902072E000C880B990B0E94170D23E30C
:1015600033E343E250E40E94A30D0E94E60C609333
:10157000340260914A0270914B02072E000C880BD6
:10158000990B0E94170D23E333E343E250E40E94DA
:10159000A30D0E94E60C60933302B801110F880B73
:1015A000990B0E94170D23E333E343E250E40E94BA
:1015B000A30D0E94E60C60933202B501BB0C880BB0
:1015C000990B0E94170D23E333E343E250E40E949A
:1015D000A30D0E94E60C60933102B701FF0C880B4B
:1015E000990B0E94170D23E333E343E250E40E947A
:1015F000A30D0E94E60C60933002B601DD0C880B4F
:10160000990B0E94170D23E333E343E250E40E9459
:10161000A30D0E94E60C60932F02622D80E090E003
:101620000E9478016091370281E090E00E94780189
:101630006091360282E090E00E947801609135026C
:1016400083E090E00E9478016091340284E090E0B1
:101650000E9478016091330285E090E00E94780159
:101660006091320286E090E00E9478016091310240
:1016700087E090E00E9478016091300288E090E07D
:101680000E94780160912F0289E090E00E94780129
:101690008091500290915102019709F0DCC085E0E1
:1016A00090E00E948C01682F70E080E090E00E9442
:1016B000170D23E333E343E250E40E946D0C0E94D4
:1016C000DF0C70934B0260934A0286E090E00E9428
:1016D0008C01682F70E080E090E00E94170D23E3FA
:1016E00033E343E250E40E946D0C0E94DF0C7093E0
:1016F00049026093480287E090E00E948C01682FC5
:1017000070E080E090E00E94170D23E333E343E2B2
:1017100050E40E946D0C0E94DF0C709347026093AE
:10172000460288E090E00E948C01682F70E080E023
:1017300090E00E94170D23E333E343E250E40E945C
:101740006D0C0E94DF0C709345026093440289E0A7
:1017500090E00E948C01682F70E080E090E00E9491
:10176000170D23E333E343E250E40E946D0C0E9423
:10177000DF0C709343026093420280E090E00E948D
:101780008C01682F70E080E090E00E94170D23E349
:1017900033E343E250E40E946D0C0E94DF0C70932F
:1017A00041026093400281E090E00E948C01682F2A
:1017B00070E080E090E00E94170D23E333E343E202
:1017C00050E40E946D0C0E94DF0C70933F02609306
:1017D0003E0282E090E00E948C01682F70E080E081
:1017E00090E00E94170D23E333E343E250E40E94AC
:1017F0006D0C0E94DF0C70933D0260933C0283E00D
:1018000090E00E948C01682F70E080E090E00E94E0
:10181000170D23E333E343E250E40E946D0C0E9472
:10182000DF0C70933B0260933A0284E090E00E94E8
:101830008C01682F70E080E090E00E94170D23E398
:1018400033E343E250E40E946D0C0E94DF0C70937E
:101850003902609338024114510409F44DCA0E94C0
:1018600000004ACA1092530210925202DACAE5E608
:10187000F2E01382128288EE93E0A0E0B0E084836D
:101880009583A683B78384E191E091838083E1E728
:10189000F2E01382128286E291E09183808387E2F4
:1018A000848380E1818782E0828713860895F99995
:1018B000FECF92BD81BDF89A992780B50895262F55
:1018C000F999FECF1FBA92BD81BD20BD0FB6F89425
:1018D000FA9AF99A0FBE019608950E94810C0C9411
:1018E000690D0E94620D58F00E945B0D40F029F4D2
:1018F0005F3F29F00C94520D51110C949D0D0C94E6
:10190000580D0E947A0D68F39923B1F3552391F392
:10191000951B550BBB27AA2762177307840738F05E
:101920009F5F5F4F220F331F441FAA1FA9F335D0BB
:101930000E2E3AF0E0E832D091505040E695001C6F
:10194000CAF72BD0FE2F29D0660F771F881FBB1F29
:10195000261737074807AB07B0E809F0BB0B802D07
:10196000BF01FF2793585F4F3AF09E3F510578F033
:101970000C94520D0C949D0D5F3FE4F3983ED4F30C
:10198000869577956795B795F7959F5FC9F7880F07
:10199000911D9695879597F90895E1E0660F771F59
:1019A000881FBB1F621773078407BA0720F0621BEA
:1019B000730B840BBA0BEE1F88F7E09508950E9415
:1019C000E60C6894B1110C949D0D08950E94820D4F
:1019D00088F09F5798F0B92F9927B751B0F0E1F0F0
:1019E000660F771F881F991F1AF0BA95C9F714C0A0
:1019F000B13091F00E949C0DB1E008950C949C0DC3
:101A0000672F782F8827B85F39F0B93FCCF38695D8
:101A100077956795B395D9F73EF490958095709535
:101A200061957F4F8F4F9F4F0895E89409C097FBB2
:101A30003EF490958095709561957F4F8F4F9F4FA5
:101A40009923A9F0F92F96E9BB279395F6958795E9
:101A500077956795B795F111F8CFFAF4BB0F11F4AC
:101A600060FF1BC06F5F7F4F8F4F9F4F16C0882353
:101A700011F096E911C0772321F09EE8872F762F89
:101A800005C0662371F096E8862F70E060E02AF0CA
:101A90009A95660F771F881FDAF7880F96958795B6
:101AA00097F9089597F99F6780E870E060E00895DE
:101AB0009FEF80EC089500240A9416161706180666
:101AC0000906089500240A94121613061406050642
:101AD0000895092E0394000C11F4882352F0BB0FD3
:101AE00040F4BF2B11F460FF04C06F5F7F4F8F4F36
:101AF0009F4F089557FD9058440F551F59F05F3F71
:101B000071F04795880F97FB991F61F09F3F79F01F
:101B100087950895121613061406551FF2CF4695A1
:101B2000F1DF08C0161617061806991FF1CF869523
:101B30007105610508940895E894BB276627772707
:101B4000CB0197F908950E94B60D0C94690D0E947F
:101B50005B0D38F00E94620D20F0952311F00C947B
:101B6000520D0C94580D11240C949D0D0E947A0D69
:101B700070F3959FC1F3950F50E0551F629FF001E0
:101B8000729FBB27F00DB11D639FAA27F00DB11DF9
:101B9000AA1F649F6627B00DA11D661F829F222782
:101BA000B00DA11D621F739FB00DA11D621F839F09
:101BB000A00D611D221F749F3327A00D611D231FDF
:101BC000849F600D211D822F762F6A2F11249F572D
:101BD00050409AF0F1F088234AF0EE0FFF1FBB1F30
:101BE000661F771F881F91505040A9F79E3F5105EF
:101BF00080F00C94520D0C949D0D5F3FE4F3983EE1
:101C0000D4F3869577956795B795F795E7959F5F98
:101C1000C1F7FE2B880F911D9695879597F908952A
:101C2000A1E21A2EAA1BBB1BFD010DC0AA1FBB1FE0
:101C3000EE1FFF1FA217B307E407F50720F0A21B52
:101C4000B30BE40BF50B661F771F881F991F1A94BF
:101C500069F760957095809590959B01AC01BD01E9
:101C6000CF010895EE0FFF1F0590F491E02D099428
:0E1C700081E090E0F8940C943D0EF894FFCFC4
:101C7E00110010000F000E00000040001400540070
:101C8E0000000000430116017301EA000E01FA0084
:101C9E00EB000000000022028C00730172014772FB
:101CAE006F75702023310056616C75652000645687
:101CBE005F31200047726F75702023320064565FCB
:101CCE0032200047726F75702023330064565F33E5
:101CDE00200047726F75702023340064565F3420E5
:101CEE000047726F75702023350064565F352000F3
:061CFE00473A00563A00CF
:103800000C94341C0C94511C0C94511C0C94511CA1
:103810000C94511C0C94511C0C94511C0C94511C74
:103820000C94511C0C94511C0C94511C0C94511C64
:103830000C94511C0C94511C0C94511C0C94511C54
:103840000C94511C0C94511C0C94511C0C94511C44
:103850000C94511C0C94511C0C94511C0C94511C34
:103860000C94511C0C94511C11241FBECFEFD4E0BA
:10387000DEBFCDBF11E0A0E0B1E0E4EAFFE302C0AB
:1038800005900D92A230B107D9F712E0A2E0B1E0A5
:1038900001C01D92AD30B107E1F70E94361D0C94B6
:1038A000D01F0C94001C982F9595959595959595FE
:1038B000905D8F708A307CF0282F295A8091C0004B
:1038C00085FFFCCF9093C6008091C00085FFFCCFA0
:1038D0002093C6000895282F205DF0CF982F809167
:1038E000C00085FFFCCF9093C6000895EF92FF9231
:1038F0000F931F93EE24FF2487018091C00087FD62
:1039000017C00894E11CF11C011D111D81E4E8168B
:1039100082E4F8068FE0080780E0180770F3E09172
:103920000401F091050109958091C00087FFE9CF5E
:103930008091C6001F910F91FF90EF9008950E9413
:10394000761C982F8091C00085FFFCCF9093C60015
:1039500091362CF490330CF09053892F089597559D
:10396000892F08951F930E949F1C182F0E949F1C4F
:103970001295107F810F1F910895882351F0982F81
:1039800091508091C00087FFFCCF8091C6009923A1
:10399000B9F708951F93182F0E94761C803249F0C2
:1039A000809103018F5F809303018530C1F01F91E7
:1039B00008958091C00085FFFCCF84E18093C6000C
:1039C0008091C00085FFFCCF1093C6008091C0009D
:1039D00085FFFCCF80E18093C6001F910895E091A0
:1039E0000401F091050109951F9108950E94761C2C
:1039F000803241F0809103018F5F80930301853015
:103A000081F008958091C00085FFFCCF84E1809310
:103A1000C6008091C00085FFFCCF80E18093C60086
:103A20000895E0910401F09105010995089510921F
:103A30000A028823D1F090E040E951E02D9A28EE67
:103A400033E0FA013197F1F721503040D1F72D984A
:103A500028EE33E0FA013197F1F721503040D1F7E9
:103A60009F5F981758F380930A0208953F924F92F0
:103A70005F926F927F928F929F92AF92BF92CF92FE
:103A8000DF92EF92FF920F931F93CF93DF9300008B
:103A900083E38093C4001092C50088E18093C10045
:103AA00086E08093C2005098589A259A81E00E943F
:103AB000171D44E1F42E3EE1E32E24E9D22E96E0D8
:103AC000C92E80E1B82EAA24A39401E4902E16E515
:103AD000812EB2E57B2EA0E26A2EF9E45F2EE3E5AB
:103AE0004E2E70E5372E0E94761C8033B1F1813363
:103AF00009F441C0803409F479C0813409F48CC0E0
:103B0000823471F1853409F47BC0803531F182351E
:103B100021F1813511F1853509F48DC0863509F41F
:103B20009DC0843609F4AEC0843709F41BC18537C3
:103B300009F485C1863709F47AC0809103018F5F4B
:103B400080930301853079F6E0910401F09105013D
:103B500009950E94761C803351F60E94F61CC3CF53
:103B600093E18091C00087FFFCCF8091C60099232C
:103B7000A1F39150F6CF0E94761C8032F1F680912D
:103B8000C00085FFFCCFF092C6008091C00085FF89
:103B9000FCCF9092C6008091C00085FFFCCF809240
:103BA000C6008091C00085FFFCCF7092C600809156
:103BB000C00085FFFCCF6092C6008091C00085FFE9
:103BC000FCCF5092C6008091C00085FFFCCF409290
:103BD000C6008091C00085FFFCCF3092C600809166
:103BE000C00085FFFCCFB092C6007DCF0E94761C3E
:103BF000863808F4B2CF0E94761C0E94F61C73CF60
:103C000094E08091C00087FFFCCF8091C60099238B
:103C100009F4A3CF9150F5CF0E94761C8038D1F0E3
:103C2000813861F1823809F499C0883979F080E0EF
:103C30000E94CA1C58CF0E94761C809306010E94E5
:103C4000761C809307010E94F61C4DCF83E00E94F2
:103C5000CA1C49CF82E00E94CA1C45CF0E94761C34
:103C6000803309F486C192E08091C00087FFFCCFC9
:103C70008091C6009923D9F29150F6CF81E00E943D
:103C8000CA1C31CF0E94761C809309020E94761CC8
:103C90008093080280910C028E7F80930C020E9418
:103CA000761C853429F480910C02816080930C028B
:103CB0008091080290910902892B89F000E010E0C0
:103CC0000E94761CF801E85FFE4F80830F5F1F4F54
:103CD00080910802909109020817190788F30E9441
:103CE000761C803209F029CF80910C0280FFD1C070
:103CF0004091060150910701440F551F5093070151
:103D000040930601A0910802B09109021097C9F0F2
:103D1000E8E0F1E09A01BD016E0F7F1FF999FECF37
:103D200032BD21BD819180BDFA9AF99A2F5F3F4F34
:103D3000E617F70799F74A0F5B1F50930701409367
:103D400006018091C00085FFFCCFF092C6008091F3
:103D5000C00085FFFCCFB092C600C5CE80E10E94B6
:103D6000CA1CC1CE0E94761C809309020E94761C58
:103D7000809308028091060190910701880F991F96
:103D800090930701809306010E94761C853409F404
:103D90007AC080910C028E7F80930C020E94761C68
:103DA000803209F0A0CE8091C00085FFFCCFF09258
:103DB000C600A0910802B09109021097B9F1809154
:103DC0000C02182F1170082F0270E0910601F0917B
:103DD00007019F012F5F3F4FB90140E050E01123E1
:103DE000B1F4002339F494918091C00085FFFCCF99
:103DF0009093C6004F5F5F4FCB010196F9014A17C0
:103E00005B0780F4BC012F5F3F4F112351F3F999F9
:103E1000FECFF2BDE1BDF89A90B58091C00085FF5C
:103E2000FCCFE6CF70930701609306018091C0003C
:103E300085FDD9CE8091C00085FFF8CFD4CE0E94F9
:103E4000761C803209F079CE8091C00085FFFCCFCE
:103E5000F092C6008091C00085FFFCCFE092C600C2
:103E60008091C00085FFFCCFD092C6008091C00039
:103E700085FFFCCFC092C6008091C00085FFFCCFBB
:103E8000B092C60030CE80910C02816080930C020B
:103E900085CF809107018823880F880B8A21809322
:103EA0000B028091060190910701880F991F909352
:103EB0000701809306018091080280FF09C080916C
:103EC00008029091090201969093090280930802DA
:103ED000F894F999FECF1127E0910601F0910701BE
:103EE000C8E0D1E08091080290910902103091F46D
:103EF0000091570001700130D9F303E0009357009F
:103F0000E8950091570001700130D9F301E1009369
:103F10005700E89509901990009157000170013001
:103F2000D9F301E000935700E8951395103498F009
:103F300011270091570001700130D9F305E000937B
:103F40005700E8950091570001700130D9F301E165
:103F500000935700E8953296029709F0C7CF1030CA
:103F600011F00296E5CF11248091C00085FFE9CEC3
:103F7000ECCE0E94761C0E94761C182F0E94761CA4
:103F8000112351F0113021F086E00E94CA1CABCD04
:103F900084E90E94CA1CA7CD8EE10E94CA1CA3CD51
:043FA000F894FFCFC3
:023FA40080009B
:0400000300003800C1
:00000001FF
