:100000000C9462000C94EE040C94C7040C948A00C7
:100010000C948A000C948A000C948A000C948A0038
:100020000C948A000C948A000C948A000C948A0028
:100030000C948A000C948A000C948A000C948A0018
:100040000C947D040C948A000C943B050C941505CB
:100050000C948A000C948A000C948A000C948A00F8
:100060000C948A000C948A000000000024002700F1
:100070002A0000000000250028002B0000000000DE
:1000800023002600290004040404040404040202DA
:100090000202020203030303030301020408102007
:1000A0004080010204081020010204081020000012
:1000B0000008000201000003040700000000000027
:1000C0000000FE0B11241FBECFEFD8E0DEBFCDBF76
:1000D00011E0A0E0B1E0ECEAFFE102C005900D9272
:1000E000A23DB107D9F723E0A2EDB1E001C01D9216
:1000F000A232B207E1F710E0C2E6D0E004C02197D7
:10010000FE010E94C90FC136D107C9F70E948C07B2
:100110000C94D40F0C940000FC01538D448D252FBA
:1001200030E0842F90E0821B930B541710F0CF9691
:10013000089501970895FC01918D828D981761F0C3
:10014000828DDF01A80FB11D5D968C91928D9F5F0E
:100150009F73928F90E008958FEF9FEF0895FC01B9
:10016000918D828D981731F0828DE80FF11D858D6C
:1001700090E008958FEF9FEF0895FC01918D228DFF
:10018000892F90E0805C9F4F821B91098F73992784
:100190000895FC01848DDF01A80FB11DA35ABF4F44
:1001A0002C91848D90E001968F739927848FA68976
:1001B000B7892C93A089B1898C91837080648C93CA
:1001C000938D848D981306C00288F389E02D808179
:1001D0008F7D80830895EF92FF920F931F93CF93AB
:1001E000DF93EC0181E0888F9B8D8C8D981305C087
:1001F000E889F989808185FD26C0F62E0B8D10E0F7
:100200000F5F1F4F0F731127E02E8C8DE8120CC06B
:100210000FB607FCFACFE889F989808185FFF5CF11
:10022000CE010E94C900F1CF8B8DFE01E80FF11DB8
:10023000E35AFF4FF0829FB7F8940B8FEA89FB894E
:10024000808180620AC09FB7F894EE89FF8960833D
:10025000E889F98980818370806480839FBF81E011
:1002600090E0DF91CF911F910F91FF90EF90089553
:10027000CF93DF93EC01888D8823C9F0EA89FB894D
:10028000808185FD05C0A889B9898C9186FD0FC044
:100290000FB607FCF5CF808185FFF2CFA889B98919
:1002A0008C9185FFEDCFCE010E94C900E7CFDF9191
:1002B000CF91089587EE91E00E94BD0021E0892B47
:1002C00009F420E0822F089580E090E0892B29F046
:1002D0000E945A0181110C9400000895833081F02E
:1002E00028F4813099F08230A1F008958730A9F088
:1002F0008830B9F08430D1F4809180008F7D03C0C4
:10030000809180008F7780938000089584B58F77E7
:1003100002C084B58F7D84BD08958091B0008F7731
:1003200003C08091B0008F7D8093B0000895089540
:10033000CF92DF92EF92FF920F931F93CF93DF93B1
:100340006C017A018B01C0E0D0E0CE15DF0581F0B1
:10035000D8016D918D01D601ED91FC910190F08154
:10036000E02DC6010995892B11F02196EECF7E0173
:10037000C701DF91CF911F910F91FF90EF90DF9018
:10038000CF900895089580E090E008958F929F9215
:10039000AF92BF92CF92DF92EF92FF926B017C01FE
:1003A00020E030E04AE754E40E94570F87FD7AC00E
:1003B00020E030E04AE754E4C701B6010E94FD0D99
:1003C0004B015C010E94760E40E080E00E94D8065E
:1003D000C501B4010E946F0E28EE33E0269FA001F4
:1003E000279F500D369F500D1124BA01550F880BD1
:1003F000990B0E94A70E9B01AC01C701B6010E9498
:100400008B0D6B017C0120E030E048EC52E40E944F
:10041000FD0D4B015C010E94760E40E081E00E94E0
:10042000D806C501B4010E946F0E24E6269FA001E4
:10043000279F500D1124BA01550F880B990B0E946C
:10044000A70E9B01AC01C701B6010E948B0D6B0189
:100450007C0120E030E040E251E40E94FD0D4B01C0
:100460005C010E94760E40E082E00E94D806C50141
:10047000B4010E946F0E2AE0269FA001279F500D15
:100480001124BA01550F880B990B0E94A70E9B01EE
:10049000AC01C701B6010E948B0D0E946F0E409106
:1004A0008402FDC020E030E048EC52E4C701B60110
:1004B0000E94570F87FD54C020E030E048EC52E422
:1004C000C701B6010E94FD0D4B015C010E94760E32
:1004D00040E080E00E94D806C501B4010E946F0E82
:1004E00024E6269FA001279F500D1124BA01550F25
:1004F000880B990B0E94A70E9B01AC01C701B601A6
:100500000E948B0D6B017C0120E030E040E251E461
:100510000E94FD0D4B015C010E94760E40E081E0DF
:100520000E94D806C501B4010E946F0E2AE0269FE2
:10053000A001279F500D1124BA01550F880B990B6C
:100540000E94A70E9B01AC01C701B6010E948B0D52
:100550004B015C010E946F0E6B017C0141E06AC09F
:1005600020E030E040E251E4C701B6010E94570F9D
:1005700087FD3BC020E030E040E251E4C701B60116
:100580000E94FD0D4B015C010E94760E40E080E070
:100590000E94D806C501B4010E946F0E2AE0269F72
:1005A000A001279F500D1124BA01550F880B990BFC
:1005B0000E94A70E9B01AC01C701B6010E948B0DE2
:1005C0004B015C010E946F0E6B017C0141E081E0F8
:1005D0000E94D806B601DD0C880B990B0E94A70E6D
:1005E0009B01AC01C501B40116C010928502C70180
:1005F000B6010E946F0E4B015C0141E081E00E9458
:10060000D806B401990C880B990B0E94A70E9B0188
:10061000AC01C701B6010E948B0D20E030E040E242
:1006200051E40E945C0F4B015C010E946F0E6B0154
:100630007C0140E06C2D82E00E94D806B601DD0C02
:10064000880B990B0E94A70E9B01AC01C501B40158
:100650000E948B0D20E030E040E251E40E945C0FEC
:100660004B015C010E946F0E6B017C01072E000C98
:10067000880B990B0E94A70E9B01AC01C501B40128
:100680000E948B0D20E030E040E05FE30E94570FB6
:1006900018161CF461E06C0D01C06C2D40E083E085
:1006A000FF90EF90DF90CF90BF90AF909F908F9092
:1006B0000C94D806CF93DF93009779F0FC0101905A
:1006C0000020E9F73197AF01481B590BBC0187EEB9
:1006D00091E00E949801EC0102C0C0E0D0E042E04D
:1006E00050E060E671E087EE91E00E9498018C0F87
:1006F0009D1FDF91CF910895CF92DF92EF92FF92ED
:100700006B017C0120E030E44CE156E40E94570F7D
:1007100087FD07C080918602882309F183E691E076
:1007200018C020E030E0A901C701B6010E94F80D11
:1007300087FF07C080918602882389F08CE991E0C9
:1007400008C0C701B601FF90EF90DF90CF900C94E6
:10075000C601FF90EF90DF90CF900C945A03FF906A
:10076000EF90DF90CF9008950C946D050E94CF0F0D
:10077000CF93DF93282F30E0F901E255FF4F8491AA
:10078000F901E656FF4FD491F901EA57FF4FC491A2
:10079000CC2391F081110E946E01EC2FF0E0EE0F5E
:1007A000FF1FE458FF4FA591B491EC91ED2381E038
:1007B00090E021F480E002C080E090E0DF91CF91F2
:1007C00008951F93CF93DF93282F30E0F901E2556E
:1007D000FF4F8491F901E656FF4FD491F901EA5792
:1007E000FF4FC491CC23C1F0162F81110E946E01DE
:1007F000EC2FF0E0EE0FFF1FEE58FF4FA591B491E4
:100800009FB7F894111104C08C91D095D82302C0E1
:10081000EC91DE2BDC939FBFDF91CF911F91089568
:10082000CF93DF9390E0FC01E656FF4F2491FC014B
:10083000EA57FF4F8491882361F190E0880F991F58
:10084000FC01E859FF4FC591D491FC01EE58FF4FD0
:10085000A591B491611109C09FB7F8948881209542
:1008600082238883EC912E230BC0623061F49FB702
:10087000F8948881322F309583238883EC912E2B36
:100880002C939FBF06C08FB7F894E8812E2B288346
:100890008FBFDF91CF9108953FB7F8948091E30126
:1008A0009091E401A091E501B091E60126B5A89BE5
:1008B00005C02F3F19F00196A11DB11D3FBFBA2FF2
:1008C000A92F982F8827820F911DA11DB11DBC0152
:1008D000CD0142E0660F771F881F991F4A95D1F717
:1008E00008952FB7F8946091DF017091E001809135
:1008F000E1019091E2012FBF08951F920F920FB670
:100900000F9211242F933F938F939F93AF93BF9395
:100910008091DF019091E001A091E101B091E201AD
:100920003091DE0123E0230F2D3720F40196A11D25
:10093000B11D05C026E8230F0296A11DB11D20930D
:10094000DE018093DF019093E001A093E101B09379
:10095000E2018091E3019091E401A091E501B09161
:10096000E6010196A11DB11D8093E3019093E4017E
:10097000A093E501B093E601BF91AF919F918F9154
:100980003F912F910F900FBE0F901F9018951F92BF
:100990000F920FB60F9211242F933F934F935F93B3
:1009A0006F937F938F939F93AF93BF93EF93FF9337
:1009B000E0910201F09103010995FF91EF91BF9140
:1009C000AF919F918F917F916F915F914F913F91E7
:1009D0002F910F900FBE0F901F9018951F920F929E
:1009E0000FB60F9211242F933F934F935F936F9302
:1009F0007F938F939F93AF93BF93EF93FF93E09178
:100A00000001F09101010995FF91EF91BF91AF9124
:100A10009F918F917F916F915F914F913F912F9116
:100A20000F900FBE0F901F9018951F920F920FB648
:100A30000F9211242F933F934F935F936F937F9364
:100A40008F939F93AF93BF93EF93FF9387EE91E0C4
:100A50000E94C900FF91EF91BF91AF919F918F913B
:100A60007F916F915F914F913F912F910F900FBEAA
:100A70000F901F9018951F920F920FB60F9211248E
:100A80002F938F939F93EF93FF93E091F701F09152
:100A9000F8018081E091FD01F091FE0182FD12C01C
:100AA0009081809100028F5F8F73209101028217E5
:100AB00051F0E0910002F0E0E951FE4F958F8093F4
:100AC000000201C08081FF91EF919F918F912F9142
:100AD0000F900FBE0F901F901895CF92DF92EF925C
:100AE000FF920E947104C090DF02D090E002E0907B
:100AF000E102F090E2029B01AC012C193D094E0984
:100B00005F0969017A018091DB0284FF81C08091D5
:100B1000E9020E94B8039C0181E02115310509F02A
:100B200080E09091DA0280FB90F99093DA02232B17
:100B3000F9F492FD1DC031E5C316D104E104F104BE
:100B4000B8F09460977F9093DA020E9471046093EA
:100B5000DF027093E0028093E1029093E2028091C1
:100B6000DA02806280688093DA02C12CD12C76018F
:100B70008091DA0280FD27C082FF25C041E5C416BE
:100B8000D104E104F104F8F083FD06C081FD04C046
:100B9000877F80648093DA028091DA028B7F809372
:100BA000DA020E9471046093DF027093E002809386
:100BB000E1029093E2028091DA028D7F8093DA0263
:100BC000C12CD12C76018091DA0282FF21C05DEB2D
:100BD000C51652E0D506E104F104D0F083FD18C03B
:100BE00080FF05C082608F7B8093DA0211C08B7F0B
:100BF0008D7F8093DA020E9471046093DF0270930C
:100C0000E0028093E1029093E202C12CD12C7601A4
:100C10008091E7020E94B8038093DC028091E80291
:100C20000E94B803880F991F9091DC02890F80936E
:100C3000DC029091DD02891709F47AC022E0C21625
:100C4000D104E104F10408F473C01092DE02833091
:100C500051F4923011F481E003C0913071F482E0DC
:100C60008093DE020AC0811108C08091DB0283FDFF
:100C700004C0913081F3923091F38091DE02882399
:100C800009F443C08091DA0280618093DA020E9405
:100C90007104C090E302D090E402E090E502F0908D
:100CA000E602AB01BC014C195D096E097F09809118
:100CB000D902082E000C990BAA0BBB0B4817590739
:100CC0006A077B0778F48091DE02813021F48091FD
:100CD000DB02826005C0823029F48091DB028160F2
:100CE0008093DB020E9471046093E3027093E4023C
:100CF0008093E5029093E6028091DA0280FF05C0BE
:100D00008091DE028E5F8093DE028091DC02809310
:100D1000DD028091DA0288608093DA020E94710419
:100D20006093DF027093E0028093E1029093E2020D
:100D3000FF90EF90DF90CF900895CF92DF92EF92E7
:100D4000FF92CF93DF93CAEED2E0998F888FBC01D8
:100D5000990F880B990B0E94A70E20E030E04AE71C
:100D600054E40E94FD0D6B017C0168A379A38AA362
:100D70009BA39B01AC016C897D898E899F890E9410
:100D8000FD0D6CA37DA38EA39FA3A7019601688987
:100D900079898A899B890E945C0F68A779A78AA7AD
:100DA0009BA7DF91CF91FF90EF90DF90CF900895B8
:100DB000CF92DF92EF92FF92CF93DF93C62FF42E64
:100DC0008130E9F0A8F0823031F18330C1F561E083
:100DD000809187020E94E10361E0809188020E9475
:100DE000E10361E0809189020E94E10360E023C099
:100DF00060E0809187020E94E10361E006C061E04B
:100E0000809187020E94E10360E0809188020E9445
:100E1000E10361E00BC061E0809187020E94E10381
:100E200061E0809188020E94E10360E08091890284
:100E30000E94E10361E080918A020E94E10327E0C1
:100E4000C29FE0011124CC57DD4F6F8580918B024A
:100E50000E94E103688980918C020E94E103698904
:100E600080918D020E94E1036A8980918E020E9426
:100E7000E1036B8980918F020E94E1036C8980916C
:100E800090020E94E1036D89809191020E94E1032A
:100E90006F2D809192020E94E1030E944C046B012D
:100EA0007C010E944C04DC01CB018C199D09AE0928
:100EB000BF09883E9340A105B10598F360E0809199
:100EC0008B020E94E10360E080918C020E94E103AA
:100ED00060E080918D020E94E10360E080918E02CB
:100EE0000E94E10360E080918F020E94E10360E0D4
:100EF000809190020E94E10360E0809191020E9443
:100F0000E10360E080919202DF91CF91FF90EF903A
:100F1000DF90CF900C94E103789484B5826084BD17
:100F200084B5816084BD85B5826085BD85B58160ED
:100F300085BD80916E00816080936E00109281006B
:100F40008091810082608093810080918100816026
:100F500080938100809180008160809380008091E7
:100F6000B10084608093B1008091B0008160809373
:100F7000B00080917A00846080937A0080917A003A
:100F8000826080937A0080917A00816080937A00F9
:100F900080917A00806880937A001092C10084EB7F
:100FA00093E09093010180930001809169008C7F10
:100FB000816080936900E89A109205038091020392
:100FC000909103030E949D0610920703109206035E
:100FD0008FEF90E0909309038093080380910503BD
:100FE000811102C061E001C06FEF062E000C770B8B
:100FF000880B990B0E94A70E2DEC3CEC4CEC5DE3AA
:101000000E945C0F6093F6027093F7028093F802DF
:101010009093F9026093FA027093FB028093FC02B2
:101020009093FD026093FE027093FF028093000391
:101030009093010380910203909103030E949D0607
:1010400061E0809187020E94100461E08091880233
:101050000E94100461E0809189020E94100461E006
:1010600080918A020E94100461E080918B020E94AC
:10107000100461E080918C020E94100461E0809174
:101080008D020E94100461E080918E020E94100483
:1010900061E080918F020E94100461E080919002D3
:1010A0000E94100461E0809191020E94100461E0AE
:1010B000809192020E94100461E0809187020E9458
:1010C000E10361E0809188020E94E10361E0809188
:1010D00089020E94E10361E080918A020E94E1039B
:1010E00060E080918B020E94E10360E080918C02BD
:1010F0000E94E10360E080918D020E94E10360E0C4
:1011000080918E020E94E10360E080918F020E9434
:10111000E10360E0809190020E94E10360E0809131
:1011200091020E94E10360E0809192020E94E1033B
:1011300081E0809384021092850210928602809151
:101140008000807E81608093800080918100807E1D
:1011500089608093810061E08AE00E94100461E070
:1011600089E00E94100461E081E10E94100410E413
:10117000C8EBD0E010937C0080917A00806480936B
:101180007A0080917A0086FDFCCF60917800809192
:10119000790070E0782B072E000C880B990B0E94C9
:1011A000A70E6B017C0120E030E048EC52E40E9485
:1011B0005C0F4B015C01A701960160E070EC8FE7CA
:1011C00094E40E948B0D9B01AC01C501B4010E9407
:1011D000FD0D6B017C0120E030E0A9010E94570F5A
:1011E000181604F52AE939E940EA52E4C701B601C4
:1011F0000E94F80D1816B4F02FE632E14BEB50E4E4
:10120000C701B6010E945C0F20E030E849E853E4D2
:101210000E948B0D6093DA017093DB018093DC01F7
:101220009093DD012AE939E940EA52E4C701B601A9
:101230000E94570F181604F52DEC3CEC40EF52E4D9
:10124000C701B6010E94F80D1816B4F028E431EE7B
:1012500042EC50E4C701B6010E945C0F2AE939E173
:1012600041E953E40E948B0D6093DA017093DB0136
:101270008093DC019093DD012DEC3CEC40EF52E4D7
:10128000C701B6010E94570F181604F520E030E0A0
:1012900046E153E4C701B6010E94F80D87FF16C06E
:1012A00023EC35EF48ED50E4C701B6010E945C0F16
:1012B00020E030E049EB53E40E948B0D6093DA01AB
:1012C0007093DB018093DC019093DD010E946D053A
:1012D0008091DB0282FD0E946D058091DA0285FF1C
:1012E0000CC08F7D8093DA028091D8019091D90152
:1012F00001969093D9018093D8018091DB0282FD01
:101300000E946D058091DE028230C1F41092DE02EF
:1013100020E030E040E85FE3609104017091050156
:1013200080910601909107010E948C0D6093040149
:101330007093050180930601909307018091DB0271
:1013400082FD0E946D058091DB0280FF19C08E7FB7
:101350008093DB0220E030E040EA50E46091040139
:101360007091050180910601909107010E948C0DFA
:101370006093040170930501809306019093070127
:101380008091DB0282FD0E946D058091DE0281303A
:10139000C1F41092DE0220E030E040E85FE36091AB
:1013A00004017091050180910601909107010E944E
:1013B0008B0D609304017093050180930601909357
:1013C00007018091DB0282FD0E946D058091DB02A6
:1013D00081FF19C08D7F8093DB0220E030E040EA7E
:1013E00050E4609104017091050180910601909193
:1013F00007010E948B0D6093040170930501809397
:101400000601909307018091D8019091D90101972D
:1014100009F05CC0C0900401D0900501E090060185
:10142000F09007016091D6017091D701072E000C52
:10143000880B990B0E94A70EA70196010E94F80D38
:10144000882359F10E9471048090D2019090D301B9
:10145000A090D401B090D501DC01CB018819990985
:10146000AA09BB0988389341A105B10518F4C70141
:10147000B601B6C10E9471046093D2017093D3018A
:101480008093D4019093D501C701B6010E946F0EDD
:101490007093D7016093D60122C00E947104C0905E
:1014A000D201D090D301E090D401F090D5016C1519
:1014B0007D058E059F0509F496C16091DA01709152
:1014C000DB018091DC019091DD018AC160E070E078
:1014D000CB010E94C6011092D9011092D8018091CF
:1014E000040190910501A0910601B091070180933C
:1014F000EA029093EB02A093EC02B093ED0280918C
:10150000DA019091DB01A091DC01B091DD018093C3
:10151000EE029093EF02A093F002B093F1020E94CA
:101520007104C0901E03D0901F03E0902003F09040
:101530002103AB01BC014C195D096E097F09809143
:10154000020390910303092E000CAA0BBB0B481752
:1015500059076A077B0708F4DCC00E947104609396
:101560001E0370931F038093200390932103C09068
:10157000EE02D090EF02E090F002F090F102A701AD
:1015800096016091EA027091EB028091EC029091D9
:10159000ED020E948B0D4B015C01209116033091EE
:1015A00017034091180350911903C701B6010E9417
:1015B0008B0D2B013C01C0921603D0921703E092D1
:1015C0001803F0921903809104032091F6023091E0
:1015D000F7024091F8025091F90281110AC0C50149
:1015E000B4010E945C0F20E030E0A9010E948C0D44
:1015F0000BC0C301B2010E945C0F9B01AC0160E013
:1016000070E0CB010E948B0D6093F2027093F302A5
:101610008093F4029093F50220910E0330910F0312
:101620004091100350911103C301B2010E945C0F5D
:101630009B01AC016091F2027091F3028091F4027F
:101640009091F5020E948B0D6B017C012091120399
:10165000309113034091140350911503C501B40157
:101660000E945C0F20911A0330911B0340911C03D0
:1016700050911D030E948C0D9B01AC0160931A03D5
:1016800070931B0380931C0390931D03C701B60145
:101690000E948C0D962EA72EB82E092F609106035E
:1016A00070910703072E000C880B990B0E94A70E60
:1016B0006B017C019B01AC01692D7A2D8B2D902F44
:1016C0000E94F80D87FD1AC060910803709109030C
:1016D000072E000C880B990B0E94A70E6B017C0152
:1016E0009B01AC01692D7A2D8B2D902F0E94570FF5
:1016F000181624F0C92CDA2CEB2CF02EC601D701D9
:101700008093F2029093F302A093F402B093F50257
:1017100008C0C090F202D090F302E090F402F09082
:10172000F502B601C7010E946F0E6B017C015B01DF
:1017300061E08AE00E941004C114D10411F460E059
:1017400005C08FEFC816D10429F461E08AE00E9439
:10175000E10343C0FE0184918330F9F048F4813005
:10176000B9F08230A1F584B5806284BDC8BC35C0B3
:101770008730E9F0883019F1843049F58091800094
:10178000806280938000D0928B00C0928A0025C036
:1017900084B5806884BDC7BC20C08091800080680B
:1017A00080938000D0928900C092880016C08091FA
:1017B000B00080688093B000C092B3000EC08091EA
:1017C000B00080628093B000C092B40006C0F0E820
:1017D000AF16B1040CF0B9CFB2CF0E946401CACCED
:1017E0000E947C037CCE0E9471046093D2017093AE
:1017F000D3018093D4019093D50171CECF92DF9223
:10180000EF92FF92CF93DF931092EA011092E901D9
:1018100088EE93E0A0E0B0E08093EB019093EC01C0
:10182000A093ED01B093EE0182E591E09093E80181
:101830008093E70185EC90E09093F4018093F301AD
:1018400084EC90E09093F6018093F50180EC90E0B9
:101850009093F8018093F70181EC90E09093FA0166
:101860008093F90182EC90E09093FC018093FB015E
:1018700086EC90E09093FE018093FD0110920002AF
:101880001092010210920202109203021092EA02D8
:101890001092EB021092EC021092ED021092EE0206
:1018A0001092EF021092F0021092F1021092F202E6
:1018B0001092F3021092F4021092F5021092F602C6
:1018C0001092F7021092F8021092F9021092FA02A6
:1018D0001092FB021092FC021092FD021092FE0286
:1018E0001092FF0210920003109201031092040361
:1018F0001092050310920703109206038FEF90E0F9
:10190000909309038093080310920A0310920B032B
:1019100010920C0310920D0310920E0310920F03FD
:1019200010921003109211031092120310921303DD
:1019300010921403109215031092160310921703BD
:10194000109218031092190310921A0310921B039D
:1019500010921C0310921D0310921E0310921F037D
:1019600010922003109221038AE090E090930303E9
:10197000809302030E947104C0910203D09103037B
:101980006E010D2E000CEE08FF08DC01CB018C0D62
:101990009D1DAE1DBF1D80931E0390931F03A0933A
:1019A0002003B093210380910503811102C061E0FF
:1019B00001C06FEF062E000C770B880B990B0E946D
:1019C000A70E6B017C012DEC3CEC4CEC5DE30E941E
:1019D0005C0F6093F6027093F7028093F802909385
:1019E000F9022DEC3CEC4CE45DE3C701B6010E942A
:1019F0005C0F6093FA027093FB028093FC02909359
:101A0000FD022AE037ED43E25CE3C701B6010E9424
:101A10005C0F6093FE027093FF028093000390932B
:101A20000103CE010E949D0682E38093D9021092A9
:101A3000DF021092E0021092E1021092E20282E0D4
:101A40008093E70283E08093E80284E08093E902D8
:101A50008091DB0280618093DB0260E082E00E9483
:101A6000100460E08091E8020E9410048091DB0283
:101A700084FF05C062E08091E9020E941004809119
:101A8000E7020E94B8038093DC028091E8020E9482
:101A9000B803880F991F9091DC02890F8093DC02B4
:101AA0008093DD02109284021092850281E080937F
:101AB000860296E4E8E0F1E0A3E9B2E001900D923D
:101AC0009A95E1F790E19093870293E190938802D1
:101AD00092E19093890294E190938A0291E190932C
:101AE0008B0280938C0288E080938D0210928E028C
:101AF0008FE080938F028BE0809390028CE0809344
:101B000091028DE080939202DF91CF91FF90EF9050
:101B1000DF90CF9008955058BB27AA270E94A30DAD
:101B20000C941D0F0E940F0F38F00E94160F20F02A
:101B300039F49F3F19F426F40C940C0F0EF4E09541
:101B4000E7FB0C94060FE92F0E942E0F58F3BA17EB
:101B5000620773078407950720F079F4A6F50C94C3
:101B6000500F0EF4E0950B2EBA2FA02D0B01B901EA
:101B700090010C01CA01A0011124FF27591B99F003
:101B8000593F50F4503E68F11A16F040A22F232F0F
:101B9000342F4427585FF3CF469537952795A7955F
:101BA000F0405395C9F77EF41F16BA0B620B730B06
:101BB000840BBAF09150A1F0FF0FBB1F661F771F77
:101BC000881FC2F70EC0BA0F621F731F841F48F42C
:101BD000879577956795B795F7959E3F08F0B0CFB5
:101BE0009395880F08F09927EE0F9795879508959C
:101BF0000E94E20E08F481E008950E94110E0C94F8
:101C00001D0F0E94160F58F00E940F0F40F029F48C
:101C10005F3F29F00C94060F51110C94510F0C9456
:101C20000C0F0E942E0F68F39923B1F3552391F303
:101C3000951B550BBB27AA2762177307840738F03B
:101C40009F5F5F4F220F331F441FAA1FA9F335D098
:101C50000E2E3AF0E0E832D091505040E695001C4C
:101C6000CAF72BD0FE2F29D0660F771F881FBB1F06
:101C7000261737074807AB07B0E809F0BB0B802DE4
:101C8000BF01FF2793585F4F3AF09E3F510578F010
:101C90000C94060F0C94510F5F3FE4F3983ED4F37D
:101CA000869577956795B795F7959F5FC9F7880FE4
:101CB000911D9695879597F90895E1E0660F771F36
:101CC000881FBB1F621773078407BA0720F0621BC7
:101CD000730B840BBA0BEE1F88F7E09508950E94F2
:101CE000760E6894B1110C94510F08950E94360F2E
:101CF00088F09F5798F0B92F9927B751B0F0E1F0CD
:101D0000660F771F881F991F1AF0BA95C9F714C07C
:101D1000B13091F00E94500FB1E008950C94500F33
:101D2000672F782F8827B85F39F0B93FCCF38695B5
:101D300077956795B395D9F73EF490958095709512
:101D400061957F4F8F4F9F4F0895E89409C097FB8F
:101D50003EF490958095709561957F4F8F4F9F4F82
:101D60009923A9F0F92F96E9BB279395F6958795C6
:101D700077956795B795F111F8CFFAF4BB0F11F489
:101D800060FF1BC06F5F7F4F8F4F9F4F16C0882330
:101D900011F096E911C0772321F09EE8872F762F66
:101DA00005C0662371F096E8862F70E060E02AF0A7
:101DB0009A95660F771F881FDAF7880F9695879593
:101DC00097F90895990F0008550FAA0BE0E8FEEF68
:101DD00016161706E807F907C0F012161306E407EF
:101DE000F50798F0621B730B840B950B39F40A26E8
:101DF00061F0232B242B252B21F408950A2609F4C6
:101E0000A140A6958FEF811D811D089597F99F67C9
:101E100080E870E060E008959FEF80EC0895002472
:101E20000A941616170618060906089500240A943F
:101E300012161306140605060895092E0394000CC5
:101E400011F4882352F0BB0F40F4BF2B11F460FF54
:101E500004C06F5F7F4F8F4F9F4F089557FD90587D
:101E6000440F551F59F05F3F71F04795880F97FB5E
:101E7000991F61F09F3F79F0879508951216130618
:101E80001406551FF2CF4695F1DF08C01616170647
:101E90001806991FF1CF869571056105089408957C
:101EA000E894BB2766277727CB0197F908950E940E
:101EB000E20E08F48FEF08950E946F0F0C941D0F2F
:101EC0000E940F0F38F00E94160F20F0952311F09A
:101ED0000C94060F0C940C0F11240C94510F0E94BB
:101EE0002E0F70F3959FC1F3950F50E0551F629F21
:101EF000F001729FBB27F00DB11D639FAA27F00D63
:101F0000B11DAA1F649F6627B00DA11D661F829F89
:101F10002227B00DA11D621F739FB00DA11D621F6E
:101F2000839FA00D611D221F749F3327A00D611D8B
:101F3000231F849F600D211D822F762F6A2F11246D
:101F40009F5750409AF0F1F088234AF0EE0FFF1FA0
:101F5000BB1F661F771F881F91505040A9F79E3FF7
:101F6000510580F00C94060F0C94510F5F3FE4F381
:101F7000983ED4F3869577956795B795F795E7954D
:101F80009F5FC1F7FE2B880F911D9695879597F956
:101F90000895EE0FFF1F0590F491E02D099481E064
:0C1FA00090E0F8940C94D40FF894FFCF5C
:101FAC009701970100009643010101010101000016
:101FBC00010100000000010100010100010101010B
:101FCC0001000001000101000001010100010100FC
:101FDC0001010100010101010101010100000000EA
:101FEC0001010101010101010101010001010000D8
:101FFC000000EB0098018C003801BD009B00AF0085
:10200C000D0A005B4572726F725D28344469676912
:10201C007437536567313250696E293A20496E70B6
:10202C0075742076616C7565206C617267657220C1
:10203C007468616E2031303030302E005B45727226
:10204C006F725D2834446967697437536567313240
:10205C0050696E293A20496E7075742076616C75E2
:10206C006520736D616C6C6572207468616E2030D4
:02207C002E0034
:00000001FF
